{
  "address": "0x605f67Db23A64FC5d560B82e2803B71b083c6761",
  "abi": [
    {
      "inputs": [
        {
          "internalType": "contract Proxy",
          "name": "Proxy_",
          "type": "address"
        }
      ],
      "stateMutability": "nonpayable",
      "type": "constructor"
    },
    {
      "inputs": [],
      "name": "_proxy",
      "outputs": [
        {
          "internalType": "contract Proxy",
          "name": "",
          "type": "address"
        }
      ],
      "stateMutability": "view",
      "type": "function"
    },
    {
      "inputs": [],
      "name": "configureSystems",
      "outputs": [],
      "stateMutability": "nonpayable",
      "type": "function"
    },
    {
      "inputs": [
        {
          "internalType": "bytes2",
          "name": "toMemberId_",
          "type": "bytes2"
        },
        {
          "internalType": "uint256",
          "name": "amount_",
          "type": "uint256"
        }
      ],
      "name": "giveReputation",
      "outputs": [],
      "stateMutability": "nonpayable",
      "type": "function"
    },
    {
      "inputs": [
        {
          "internalType": "uint256",
          "name": "amount_",
          "type": "uint256"
        }
      ],
      "name": "lockTokens",
      "outputs": [],
      "stateMutability": "nonpayable",
      "type": "function"
    },
    {
      "inputs": [
        {
          "internalType": "uint256",
          "name": "amount_",
          "type": "uint256"
        }
      ],
      "name": "redeemVotes",
      "outputs": [],
      "stateMutability": "nonpayable",
      "type": "function"
    },
    {
      "inputs": [
        {
          "internalType": "address",
          "name": "pmtCurrency_",
          "type": "address"
        }
      ],
      "name": "register",
      "outputs": [],
      "stateMutability": "nonpayable",
      "type": "function"
    },
    {
      "inputs": [
        {
          "internalType": "bytes2",
          "name": "",
          "type": "bytes2"
        },
        {
          "internalType": "bytes2",
          "name": "",
          "type": "bytes2"
        }
      ],
      "name": "repsGiven",
      "outputs": [
        {
          "internalType": "uint256",
          "name": "",
          "type": "uint256"
        }
      ],
      "stateMutability": "view",
      "type": "function"
    }
  ],
  "transactionHash": "0x0506b638330e90dd21ad334474d772a1212bcd20f9abb67b2fa64406326ad446",
  "args": [
    "0xc4e2584DbD21c1a77CE15F63e738985d6FADf3De"
  ],
  "numDeployments": 1,
  "solcInputHash": "62743333e53cb95ce51c49e1782e29d6",
  "bytecode": "0x608060405234801561001057600080fd5b50604051611b78380380611b7883398101604081905261002f91610054565b600080546001600160a01b0319166001600160a01b0392909216919091179055610084565b60006020828403121561006657600080fd5b81516001600160a01b038116811461007d57600080fd5b9392505050565b611ae5806100936000396000f3fe608060405234801561001057600080fd5b506004361061007d5760003560e01c80639d1054e01161005b5780639d1054e0146100e8578063cc2effdc146100fb578063e51f923214610140578063eb3503521461014857600080fd5b80634420e486146100825780636caa763a146100975780636e27d889146100d5575b600080fd5b610095610090366004611735565b61015b565b005b6100c26100a5366004611787565b600560209081526000928352604080842090915290825290205481565b6040519081526020015b60405180910390f35b6100956100e33660046117c0565b61044b565b6100956100f63660046117d9565b6107c9565b60005461011b9073ffffffffffffffffffffffffffffffffffffffff1681565b60405173ffffffffffffffffffffffffffffffffffffffff90911681526020016100cc565b610095610f78565b6100956101563660046117c0565b6111ff565b60008054906101000a900473ffffffffffffffffffffffffffffffffffffffff1673ffffffffffffffffffffffffffffffffffffffff1663766718086040518163ffffffff1660e01b8152600401602060405180830381865afa1580156101c6573d6000803e3d6000fd5b505050506040513d601f19601f820116820180604052508101906101ea9190611805565b61027b576040517f08c379a000000000000000000000000000000000000000000000000000000000815260206004820152602e60248201527f63616e6e6f7420726567697374657228293a2050726f787920686173206e6f7460448201527f206c61756e63686564207965742100000000000000000000000000000000000060648201526084015b60405180910390fd5b6003546040517f779beedf00000000000000000000000000000000000000000000000000000000815233600482015273ffffffffffffffffffffffffffffffffffffffff9091169063779beedf906024016020604051808303816000875af11580156102eb573d6000803e3d6000fd5b505050506040513d601f19601f8201168201806040525081019061030f919061181e565b5060008173ffffffffffffffffffffffffffffffffffffffff1663313ce5676040518163ffffffff1660e01b8152600401602060405180830381865afa15801561035d573d6000803e3d6000fd5b505050506040513d601f19601f82011682018060405250810190610381919061183b565b60045490915073ffffffffffffffffffffffffffffffffffffffff1663d1a0cc5c33846103af85600a6119ad565b6103ba9060646119bc565b6040517fffffffff0000000000000000000000000000000000000000000000000000000060e086901b16815273ffffffffffffffffffffffffffffffffffffffff938416600482015292909116602483015260448201526064015b600060405180830381600087803b15801561042f57600080fd5b505af1158015610443573d6000803e3d6000fd5b505050505050565b6003546040517f65f68c8900000000000000000000000000000000000000000000000000000000815233600482015260009173ffffffffffffffffffffffffffffffffffffffff16906365f68c8990602401602060405180830381865afa1580156104ba573d6000803e3d6000fd5b505050506040513d601f19601f820116820180604052508101906104de919061181e565b90507fffff000000000000000000000000000000000000000000000000000000000000811661058f576040517f08c379a000000000000000000000000000000000000000000000000000000000815260206004820152603f60248201527f63616e6e6f74206c6f636b546f6b656e7328293a2063616c6c657220646f657360448201527f206e6f742068617665206120726567697374657265642070726f7879204964006064820152608401610272565b6001546040517f9dc29fac0000000000000000000000000000000000000000000000000000000081523360048201526024810184905273ffffffffffffffffffffffffffffffffffffffff90911690639dc29fac906044016020604051808303816000875af1158015610606573d6000803e3d6000fd5b505050506040513d601f19601f8201168201806040525081019061062a91906119f9565b506002546040517f2d9708a000000000000000000000000000000000000000000000000000000000815233600482015273ffffffffffffffffffffffffffffffffffffffff90911690632d9708a090602401600060405180830381600087803b15801561069657600080fd5b505af11580156106aa573d6000803e3d6000fd5b50506002546040517f867904b40000000000000000000000000000000000000000000000000000000081523360048201526024810186905273ffffffffffffffffffffffffffffffffffffffff909116925063867904b491506044016020604051808303816000875af1158015610725573d6000803e3d6000fd5b505050506040513d601f19601f820116820180604052508101906107499190611805565b506003546040517f61437dc50000000000000000000000000000000000000000000000000000000081527fffff000000000000000000000000000000000000000000000000000000000000831660048201526024810184905273ffffffffffffffffffffffffffffffffffffffff909116906361437dc590604401610415565b6003546040517f65f68c8900000000000000000000000000000000000000000000000000000000815233600482015260009173ffffffffffffffffffffffffffffffffffffffff16906365f68c8990602401602060405180830381865afa158015610838573d6000803e3d6000fd5b505050506040513d601f19601f8201168201806040525081019061085c919061181e565b7fffff00000000000000000000000000000000000000000000000000000000000080821660009081526005602090815260408083209388168352929052908120549192506108aa8483611a1b565b90507fffff000000000000000000000000000000000000000000000000000000000000831661095b576040517f08c379a000000000000000000000000000000000000000000000000000000000815260206004820152603f60248201527f63616e6e6f74206769766552657075746174696f6e28293a2063616c6c65722060448201527f646f6573206e6f74206861766520726567697374657265642077616c6c6574006064820152608401610272565b6003546040517f1a525da90000000000000000000000000000000000000000000000000000000081527fffff0000000000000000000000000000000000000000000000000000000000008716600482015260009173ffffffffffffffffffffffffffffffffffffffff1690631a525da990602401602060405180830381865afa1580156109ec573d6000803e3d6000fd5b505050506040513d601f19601f82011682018060405250810190610a109190611a33565b73ffffffffffffffffffffffffffffffffffffffff161415610ada576040517f08c379a000000000000000000000000000000000000000000000000000000000815260206004820152605160248201527f63616e6e6f74206769766552657075746174696f6e28293a207265636569766960448201527f6e67204944206d757374206265206173736f636961746564207769746820612060648201527f726567697374657265642077616c6c6574000000000000000000000000000000608482015260a401610272565b7fffff0000000000000000000000000000000000000000000000000000000000008581169084161415610bb5576040517f08c379a000000000000000000000000000000000000000000000000000000000815260206004820152604160248201527f63616e6e6f74206769766552657075746174696f6e28293a2063616c6c65722060448201527f63616e6e6f742067697665207468656d73656c7665732072657075746174696f60648201527f6e00000000000000000000000000000000000000000000000000000000000000608482015260a401610272565b60c8811115610c6c576040517f08c379a000000000000000000000000000000000000000000000000000000000815260206004820152604660248201527f63616e6e6f74206769766552657075746174696f6e28293a2063616e6e6f742060448201527f657863656564203230302072657075746174696f6e20676976656e207065722060648201527f6d656d6265720000000000000000000000000000000000000000000000000000608482015260a401610272565b6003546040517fd48bf2b60000000000000000000000000000000000000000000000000000000081527fffff0000000000000000000000000000000000000000000000000000000000008086166004830152871660248201526044810186905273ffffffffffffffffffffffffffffffffffffffff9091169063d48bf2b690606401600060405180830381600087803b158015610d0857600080fd5b505af1158015610d1c573d6000803e3d6000fd5b5050507fffff0000000000000000000000000000000000000000000000000000000000008085166000908152600560209081526040808320938a1683529290522082905550606482108015610d72575060648110155b15610e1d576003546040517fe4e6aaf70000000000000000000000000000000000000000000000000000000081527fffff0000000000000000000000000000000000000000000000000000000000008716600482015273ffffffffffffffffffffffffffffffffffffffff9091169063e4e6aaf790602401600060405180830381600087803b158015610e0457600080fd5b505af1158015610e18573d6000803e3d6000fd5b505050505b60c882108015610e2d57508060c8145b15610f71576003546040517f61437dc5000000000000000000000000000000000000000000000000000000008152600060048201526064602482015273ffffffffffffffffffffffffffffffffffffffff909116906361437dc590604401600060405180830381600087803b158015610ea557600080fd5b505af1158015610eb9573d6000803e3d6000fd5b50506003546040517fd48bf2b6000000000000000000000000000000000000000000000000000000008152600060048201527fffff0000000000000000000000000000000000000000000000000000000000008916602482015260646044820181905273ffffffffffffffffffffffffffffffffffffffff909216935063d48bf2b6925001600060405180830381600087803b158015610f5857600080fd5b505af1158015610f6c573d6000803e3d6000fd5b505050505b5050505050565b60005473ffffffffffffffffffffffffffffffffffffffff163314611045576040517f08c379a000000000000000000000000000000000000000000000000000000000815260206004820152604860248201527f63616e6e6f7420636f6e66696775726553797374656d7328293a206f6e6c792060448201527f7468652050726f787920636f6e74726163742063616e20636f6e66696775726560648201527f2073797374656d73000000000000000000000000000000000000000000000000608482015260a401610272565b61106e7f544b4e00000000000000000000000000000000000000000000000000000000006115b0565b600180547fffffffffffffffffffffffff00000000000000000000000000000000000000001673ffffffffffffffffffffffffffffffffffffffff929092169190911790556110dc7f56545000000000000000000000000000000000000000000000000000000000006115b0565b600280547fffffffffffffffffffffffff00000000000000000000000000000000000000001673ffffffffffffffffffffffffffffffffffffffff9290921691909117905561114a7f52455000000000000000000000000000000000000000000000000000000000006115b0565b600380547fffffffffffffffffffffffff00000000000000000000000000000000000000001673ffffffffffffffffffffffffffffffffffffffff929092169190911790556111b87f54535900000000000000000000000000000000000000000000000000000000006115b0565b600480547fffffffffffffffffffffffff00000000000000000000000000000000000000001673ffffffffffffffffffffffffffffffffffffffff92909216919091179055565b6002546040517ff0116644000000000000000000000000000000000000000000000000000000008152336004820152600f9173ffffffffffffffffffffffffffffffffffffffff169063f011664490602401602060405180830381865afa15801561126e573d6000803e3d6000fd5b505050506040513d601f19601f820116820180604052508101906112929190611a50565b61ffff16101561132657604080517f08c379a00000000000000000000000000000000000000000000000000000000081526020600482015260248101919091527f63616e6e6f742072656465656d566f74657328293a2063616c6c657220646f6560448201527f736e2774206861766520656e6f7567682076657374696e6720637265646974736064820152608401610272565b6002546040517f2d9708a000000000000000000000000000000000000000000000000000000000815233600482015273ffffffffffffffffffffffffffffffffffffffff90911690632d9708a090602401600060405180830381600087803b15801561139157600080fd5b505af11580156113a5573d6000803e3d6000fd5b50506002546040517f1e9a6950000000000000000000000000000000000000000000000000000000008152336004820152602481018590526000935073ffffffffffffffffffffffffffffffffffffffff9091169150631e9a6950906044016020604051808303816000875af1158015611423573d6000803e3d6000fd5b505050506040513d601f19601f820116820180604052508101906114479190611805565b90506000620f4240600260009054906101000a900473ffffffffffffffffffffffffffffffffffffffff1673ffffffffffffffffffffffffffffffffffffffff166326987b606040518163ffffffff1660e01b8152600401602060405180830381865afa1580156114bc573d6000803e3d6000fd5b505050506040513d601f19601f820116820180604052508101906114e09190611805565b6114ea9190611a74565b60015490915073ffffffffffffffffffffffffffffffffffffffff166340c10f193361151684866119bc565b6040517fffffffff0000000000000000000000000000000000000000000000000000000060e085901b16815273ffffffffffffffffffffffffffffffffffffffff909216600483015260248201526044016020604051808303816000875af1158015611586573d6000803e3d6000fd5b505050506040513d601f19601f820116820180604052508101906115aa91906119f9565b50505050565b600080546040517fec364d880000000000000000000000000000000000000000000000000000000081527fffffff000000000000000000000000000000000000000000000000000000000084166004820152829173ffffffffffffffffffffffffffffffffffffffff169063ec364d8890602401602060405180830381865afa158015611641573d6000803e3d6000fd5b505050506040513d601f19601f820116820180604052508101906116659190611a33565b905073ffffffffffffffffffffffffffffffffffffffff811661170a576040517f08c379a000000000000000000000000000000000000000000000000000000000815260206004820152602d60248201527f63616e6e6f74205f72657175697265537974656d28293a2073797374656d206460448201527f6f6573206e6f74206578697374000000000000000000000000000000000000006064820152608401610272565b92915050565b73ffffffffffffffffffffffffffffffffffffffff8116811461173257600080fd5b50565b60006020828403121561174757600080fd5b813561175281611710565b9392505050565b7fffff0000000000000000000000000000000000000000000000000000000000008116811461173257600080fd5b6000806040838503121561179a57600080fd5b82356117a581611759565b915060208301356117b581611759565b809150509250929050565b6000602082840312156117d257600080fd5b5035919050565b600080604083850312156117ec57600080fd5b82356117f781611759565b946020939093013593505050565b60006020828403121561181757600080fd5b5051919050565b60006020828403121561183057600080fd5b815161175281611759565b60006020828403121561184d57600080fd5b815160ff8116811461175257600080fd5b7f4e487b7100000000000000000000000000000000000000000000000000000000600052601160045260246000fd5b600181815b808511156118e657817fffffffffffffffffffffffffffffffffffffffffffffffffffffffffffffffff048211156118cc576118cc61185e565b808516156118d957918102915b93841c9390800290611892565b509250929050565b6000826118fd5750600161170a565b8161190a5750600061170a565b8160018114611920576002811461192a57611946565b600191505061170a565b60ff84111561193b5761193b61185e565b50506001821b61170a565b5060208310610133831016604e8410600b8410161715611969575081810a61170a565b611973838361188d565b807fffffffffffffffffffffffffffffffffffffffffffffffffffffffffffffffff048211156119a5576119a561185e565b029392505050565b600061175260ff8416836118ee565b6000817fffffffffffffffffffffffffffffffffffffffffffffffffffffffffffffffff04831182151516156119f4576119f461185e565b500290565b600060208284031215611a0b57600080fd5b8151801515811461175257600080fd5b60008219821115611a2e57611a2e61185e565b500190565b600060208284031215611a4557600080fd5b815161175281611710565b600060208284031215611a6257600080fd5b815161ffff8116811461175257600080fd5b600082611aaa577f4e487b7100000000000000000000000000000000000000000000000000000000600052601260045260246000fd5b50049056fea2646970667358221220423eb7d870805cb0147d250dad49d52b9a6a733b897a6e298057f2d4cfb453b064736f6c634300080b0033",
  "devdoc": {
    "kind": "dev",
    "methods": {},
    "version": 1
  },
  "userdoc": {
    "kind": "user",
    "methods": {},
    "version": 1
  },
  "storageLayout": {
    "storage": [
      {
        "astId": 4439,
        "contract": "contracts/Policies/ProxyDAO.sol:ProxyDAO",
        "label": "_proxy",
        "offset": 0,
        "slot": "0",
        "type": "t_contract(Proxy)4893"
      },
      {
        "astId": 3187,
        "contract": "contracts/Policies/ProxyDAO.sol:ProxyDAO",
        "label": "TKN",
        "offset": 0,
        "slot": "1",
        "type": "t_contract(Token)5660"
      },
      {
        "astId": 3190,
        "contract": "contracts/Policies/ProxyDAO.sol:ProxyDAO",
        "label": "VTP",
        "offset": 0,
        "slot": "2",
        "type": "t_contract(VotingPower)6176"
      },
      {
        "astId": 3193,
        "contract": "contracts/Policies/ProxyDAO.sol:ProxyDAO",
        "label": "REP",
        "offset": 0,
        "slot": "3",
        "type": "t_contract(Reputation)5441"
      },
      {
        "astId": 3196,
        "contract": "contracts/Policies/ProxyDAO.sol:ProxyDAO",
        "label": "TSY",
        "offset": 0,
        "slot": "4",
        "type": "t_contract(Treasury)5859"
      },
      {
        "astId": 3250,
        "contract": "contracts/Policies/ProxyDAO.sol:ProxyDAO",
        "label": "repsGiven",
        "offset": 0,
        "slot": "5",
        "type": "t_mapping(t_bytes2,t_mapping(t_bytes2,t_uint256))"
      }
    ],
    "types": {
      "t_bytes2": {
        "encoding": "inplace",
        "label": "bytes2",
        "numberOfBytes": "2"
      },
      "t_contract(Proxy)4893": {
        "encoding": "inplace",
        "label": "contract Proxy",
        "numberOfBytes": "20"
      },
      "t_contract(Reputation)5441": {
        "encoding": "inplace",
        "label": "contract Reputation",
        "numberOfBytes": "20"
      },
      "t_contract(Token)5660": {
        "encoding": "inplace",
        "label": "contract Token",
        "numberOfBytes": "20"
      },
      "t_contract(Treasury)5859": {
        "encoding": "inplace",
        "label": "contract Treasury",
        "numberOfBytes": "20"
      },
      "t_contract(VotingPower)6176": {
        "encoding": "inplace",
        "label": "contract VotingPower",
        "numberOfBytes": "20"
      },
      "t_mapping(t_bytes2,t_mapping(t_bytes2,t_uint256))": {
        "encoding": "mapping",
        "key": "t_bytes2",
        "label": "mapping(bytes2 => mapping(bytes2 => uint256))",
        "numberOfBytes": "32",
        "value": "t_mapping(t_bytes2,t_uint256)"
      },
      "t_mapping(t_bytes2,t_uint256)": {
        "encoding": "mapping",
        "key": "t_bytes2",
        "label": "mapping(bytes2 => uint256)",
        "numberOfBytes": "32",
        "value": "t_uint256"
      },
      "t_uint256": {
        "encoding": "inplace",
        "label": "uint256",
        "numberOfBytes": "32"
      }
    }
  }
}