{
  "address": "0xB016965A45a208b9685F58914469Fb85D01dc0FA",
  "abi": [
    {
      "inputs": [
        {
          "internalType": "contract Proxy",
          "name": "Proxy_",
          "type": "address"
        }
      ],
      "stateMutability": "nonpayable",
      "type": "constructor"
    },
    {
      "inputs": [],
      "name": "_proxy",
      "outputs": [
        {
          "internalType": "contract Proxy",
          "name": "",
          "type": "address"
        }
      ],
      "stateMutability": "view",
      "type": "function"
    },
    {
      "inputs": [],
      "name": "configureSystems",
      "outputs": [],
      "stateMutability": "nonpayable",
      "type": "function"
    },
    {
      "inputs": [
        {
          "internalType": "uint16",
          "name": "amount_",
          "type": "uint16"
        },
        {
          "internalType": "address",
          "name": "pmtCurrency_",
          "type": "address"
        }
      ],
      "name": "purchase",
      "outputs": [],
      "stateMutability": "nonpayable",
      "type": "function"
    },
    {
      "inputs": [],
      "name": "viewMyAllocation",
      "outputs": [
        {
          "internalType": "uint256",
          "name": "",
          "type": "uint256"
        }
      ],
      "stateMutability": "view",
      "type": "function"
    }
  ],
  "transactionHash": "0x84b95b3a3f299e921f6446cece86e542f38ad12445045d8f73a0cfd8a62fc8c7",
  "args": [
    "0xc4e2584DbD21c1a77CE15F63e738985d6FADf3De"
  ],
  "numDeployments": 2,
  "solcInputHash": "4b8aaa39b4845699f534ab02501a9e4d",
  "bytecode": "0x608060405234801561001057600080fd5b5060405161113838038061113883398101604081905261002f91610054565b600080546001600160a01b0319166001600160a01b0392909216919091179055610084565b60006020828403121561006657600080fd5b81516001600160a01b038116811461007d57600080fd5b9392505050565b6110a5806100936000396000f3fe608060405234801561001057600080fd5b506004361061004c5760003560e01c8063396c822814610051578063631e4dd214610066578063cc2effdc14610081578063e51f9232146100c6575b600080fd5b61006461005f366004610d53565b6100ce565b005b61006e6104e1565b6040519081526020015b60405180910390f35b6000546100a19073ffffffffffffffffffffffffffffffffffffffff1681565b60405173ffffffffffffffffffffffffffffffffffffffff9091168152602001610078565b6100646104f1565b60008060009054906101000a900473ffffffffffffffffffffffffffffffffffffffff1673ffffffffffffffffffffffffffffffffffffffff1663766718086040518163ffffffff1660e01b8152600401602060405180830381865afa15801561013c573d6000803e3d6000fd5b505050506040513d601f19601f820116820180604052508101906101609190610d93565b600081815260046020818152604080842033855282528084205481517f313ce56700000000000000000000000000000000000000000000000000000000815291519596509460649373ffffffffffffffffffffffffffffffffffffffff89169363313ce56793808301939192908290030181865afa1580156101e6573d6000803e3d6000fd5b505050506040513d601f19601f8201168201806040525081019061020a9190610dac565b61021590600a610f25565b610220876001610f34565b61ffff1661022e9190610f5e565b6102389190610f9b565b9050610243336108b2565b61025161ffff871684610fd6565b11156102e4576040517f08c379a000000000000000000000000000000000000000000000000000000000815260206004820152603860248201527f63616e6e6f74207075726368617365546f6b656e28293a206e6f7420656e6f7560448201527f676820746f6b656e2073616c6520616c6c6f636174696f6e000000000000000060648201526084015b60405180910390fd5b6102f261ffff861683610fd6565b60008054604080517f7667180800000000000000000000000000000000000000000000000000000000815290516004939273ffffffffffffffffffffffffffffffffffffffff16916376671808918186019160209190819003870181865afa158015610362573d6000803e3d6000fd5b505050506040513d601f19601f820116820180604052508101906103869190610d93565b8152602080820192909252604090810160009081203380835293528190209290925560025491517fd1a0cc5c000000000000000000000000000000000000000000000000000000008152600481019190915273ffffffffffffffffffffffffffffffffffffffff8681166024830152604482018490529091169063d1a0cc5c90606401600060405180830381600087803b15801561042357600080fd5b505af1158015610437573d6000803e3d6000fd5b50506001546040517f40c10f1900000000000000000000000000000000000000000000000000000000815233600482015261ffff8916602482015273ffffffffffffffffffffffffffffffffffffffff90911692506340c10f1991506044016020604051808303816000875af11580156104b5573d6000803e3d6000fd5b505050506040513d601f19601f820116820180604052508101906104d99190610fee565b505050505050565b60006104ec336108b2565b905090565b60005473ffffffffffffffffffffffffffffffffffffffff1633146105be576040517f08c379a000000000000000000000000000000000000000000000000000000000815260206004820152604860248201527f63616e6e6f7420636f6e66696775726553797374656d7328293a206f6e6c792060448201527f7468652050726f787920636f6e74726163742063616e20636f6e66696775726560648201527f2073797374656d73000000000000000000000000000000000000000000000000608482015260a4016102db565b6105e77f544b4e0000000000000000000000000000000000000000000000000000000000610bce565b600180547fffffffffffffffffffffffff00000000000000000000000000000000000000001673ffffffffffffffffffffffffffffffffffffffff929092169190911790556106557f5245500000000000000000000000000000000000000000000000000000000000610bce565b600380547fffffffffffffffffffffffff00000000000000000000000000000000000000001673ffffffffffffffffffffffffffffffffffffffff929092169190911790556106c37f5453590000000000000000000000000000000000000000000000000000000000610bce565b600280547fffffffffffffffffffffffff00000000000000000000000000000000000000001673ffffffffffffffffffffffffffffffffffffffff9290921691821790556040517f4ef0762e000000000000000000000000000000000000000000000000000000008152732791bca1f2de4661ed88a30c99a7a9449aa841746004820152634ef0762e90602401600060405180830381600087803b15801561076a57600080fd5b505af115801561077e573d6000803e3d6000fd5b50506002546040517f4ef0762e000000000000000000000000000000000000000000000000000000008152738f3cf7ad23cd3cadbd9735aff958023239c6a063600482015273ffffffffffffffffffffffffffffffffffffffff9091169250634ef0762e9150602401600060405180830381600087803b15801561080157600080fd5b505af1158015610815573d6000803e3d6000fd5b50506002546040517f4ef0762e0000000000000000000000000000000000000000000000000000000081527345c32fa6df82ead1e2ef74d17b76547eddfaff89600482015273ffffffffffffffffffffffffffffffffffffffff9091169250634ef0762e9150602401600060405180830381600087803b15801561089857600080fd5b505af11580156108ac573d6000803e3d6000fd5b50505050565b6003546040517f65f68c8900000000000000000000000000000000000000000000000000000000815273ffffffffffffffffffffffffffffffffffffffff838116600483015260009283929116906365f68c8990602401602060405180830381865afa158015610926573d6000803e3d6000fd5b505050506040513d601f19601f8201168201806040525081019061094a9190611010565b6003546040517fa94686650000000000000000000000000000000000000000000000000000000081527fffff00000000000000000000000000000000000000000000000000000000000083166004820152919250600091600a9173ffffffffffffffffffffffffffffffffffffffff169063a946866590602401602060405180830381865afa1580156109e1573d6000803e3d6000fd5b505050506040513d601f19601f82011682018060405250810190610a059190610d93565b610a0f9190610f9b565b6003546040517fef97a27c0000000000000000000000000000000000000000000000000000000081527fffff0000000000000000000000000000000000000000000000000000000000008516600482015291925060009173ffffffffffffffffffffffffffffffffffffffff9091169063ef97a27c90602401602060405180830381865afa158015610aa5573d6000803e3d6000fd5b505050506040513d601f19601f82011682018060405250810190610ac99190610d93565b610ad490601e610f5e565b90507fffff0000000000000000000000000000000000000000000000000000000000008316610b8757604080517f08c379a00000000000000000000000000000000000000000000000000000000081526020600482015260248101919091527f63616e6e6f742066696e6420676574416c6c6f636174696f6e4f6628293a206360448201527f616c6c6572206973206e6f74206120726567697374657265642077616c6c657460648201526084016102db565b808211158015610b9857506107d082105b15610ba557509392505050565b8181108015610bb557506107d081105b15610bc257949350505050565b506107d0949350505050565b600080546040517fec364d880000000000000000000000000000000000000000000000000000000081527fffffff000000000000000000000000000000000000000000000000000000000084166004820152829173ffffffffffffffffffffffffffffffffffffffff169063ec364d8890602401602060405180830381865afa158015610c5f573d6000803e3d6000fd5b505050506040513d601f19601f82011682018060405250810190610c839190611052565b905073ffffffffffffffffffffffffffffffffffffffff8116610d28576040517f08c379a000000000000000000000000000000000000000000000000000000000815260206004820152602d60248201527f63616e6e6f74205f72657175697265537974656d28293a2073797374656d206460448201527f6f6573206e6f742065786973740000000000000000000000000000000000000060648201526084016102db565b92915050565b73ffffffffffffffffffffffffffffffffffffffff81168114610d5057600080fd5b50565b60008060408385031215610d6657600080fd5b823561ffff81168114610d7857600080fd5b91506020830135610d8881610d2e565b809150509250929050565b600060208284031215610da557600080fd5b5051919050565b600060208284031215610dbe57600080fd5b815160ff81168114610dcf57600080fd5b9392505050565b7f4e487b7100000000000000000000000000000000000000000000000000000000600052601160045260246000fd5b600181815b80851115610e5e57817fffffffffffffffffffffffffffffffffffffffffffffffffffffffffffffffff04821115610e4457610e44610dd6565b80851615610e5157918102915b93841c9390800290610e0a565b509250929050565b600082610e7557506001610d28565b81610e8257506000610d28565b8160018114610e985760028114610ea257610ebe565b6001915050610d28565b60ff841115610eb357610eb3610dd6565b50506001821b610d28565b5060208310610133831016604e8410600b8410161715610ee1575081810a610d28565b610eeb8383610e05565b807fffffffffffffffffffffffffffffffffffffffffffffffffffffffffffffffff04821115610f1d57610f1d610dd6565b029392505050565b6000610dcf60ff841683610e66565b600061ffff80831681851681830481118215151615610f5557610f55610dd6565b02949350505050565b6000817fffffffffffffffffffffffffffffffffffffffffffffffffffffffffffffffff0483118215151615610f9657610f96610dd6565b500290565b600082610fd1577f4e487b7100000000000000000000000000000000000000000000000000000000600052601260045260246000fd5b500490565b60008219821115610fe957610fe9610dd6565b500190565b60006020828403121561100057600080fd5b81518015158114610dcf57600080fd5b60006020828403121561102257600080fd5b81517fffff00000000000000000000000000000000000000000000000000000000000081168114610dcf57600080fd5b60006020828403121561106457600080fd5b8151610dcf81610d2e56fea2646970667358221220ef55bda3b8bfff260160fd7b54dc3ccf7fff8de9104ac037350d09fa32ee0c8864736f6c634300080b0033",
  "devdoc": {
    "kind": "dev",
    "methods": {},
    "version": 1
  },
  "userdoc": {
    "kind": "user",
    "methods": {},
    "version": 1
  },
  "storageLayout": {
    "storage": [
      {
        "astId": 4432,
        "contract": "contracts/Policies/TokenSale.sol:TokenSale",
        "label": "_proxy",
        "offset": 0,
        "slot": "0",
        "type": "t_contract(Proxy)4886"
      },
      {
        "astId": 4155,
        "contract": "contracts/Policies/TokenSale.sol:TokenSale",
        "label": "TKN",
        "offset": 0,
        "slot": "1",
        "type": "t_contract(Token)5653"
      },
      {
        "astId": 4158,
        "contract": "contracts/Policies/TokenSale.sol:TokenSale",
        "label": "TSY",
        "offset": 0,
        "slot": "2",
        "type": "t_contract(Treasury)5852"
      },
      {
        "astId": 4161,
        "contract": "contracts/Policies/TokenSale.sol:TokenSale",
        "label": "REP",
        "offset": 0,
        "slot": "3",
        "type": "t_contract(Reputation)5434"
      },
      {
        "astId": 4225,
        "contract": "contracts/Policies/TokenSale.sol:TokenSale",
        "label": "purchaseHistory",
        "offset": 0,
        "slot": "4",
        "type": "t_mapping(t_uint256,t_mapping(t_address,t_uint256))"
      }
    ],
    "types": {
      "t_address": {
        "encoding": "inplace",
        "label": "address",
        "numberOfBytes": "20"
      },
      "t_contract(Proxy)4886": {
        "encoding": "inplace",
        "label": "contract Proxy",
        "numberOfBytes": "20"
      },
      "t_contract(Reputation)5434": {
        "encoding": "inplace",
        "label": "contract Reputation",
        "numberOfBytes": "20"
      },
      "t_contract(Token)5653": {
        "encoding": "inplace",
        "label": "contract Token",
        "numberOfBytes": "20"
      },
      "t_contract(Treasury)5852": {
        "encoding": "inplace",
        "label": "contract Treasury",
        "numberOfBytes": "20"
      },
      "t_mapping(t_address,t_uint256)": {
        "encoding": "mapping",
        "key": "t_address",
        "label": "mapping(address => uint256)",
        "numberOfBytes": "32",
        "value": "t_uint256"
      },
      "t_mapping(t_uint256,t_mapping(t_address,t_uint256))": {
        "encoding": "mapping",
        "key": "t_uint256",
        "label": "mapping(uint256 => mapping(address => uint256))",
        "numberOfBytes": "32",
        "value": "t_mapping(t_address,t_uint256)"
      },
      "t_uint256": {
        "encoding": "inplace",
        "label": "uint256",
        "numberOfBytes": "32"
      }
    }
  }
}