{
  "address": "0xdbD1777BC465c97dCC062c8609DE7cb94eC02256",
  "abi": [
    {
      "inputs": [
        {
          "internalType": "contract Proxy",
          "name": "proxy_",
          "type": "address"
        }
      ],
      "stateMutability": "nonpayable",
      "type": "constructor"
    },
    {
      "anonymous": false,
      "inputs": [
        {
          "indexed": true,
          "internalType": "address",
          "name": "owner",
          "type": "address"
        },
        {
          "indexed": true,
          "internalType": "address",
          "name": "spender",
          "type": "address"
        },
        {
          "indexed": false,
          "internalType": "uint256",
          "name": "value",
          "type": "uint256"
        }
      ],
      "name": "Approval",
      "type": "event"
    },
    {
      "anonymous": false,
      "inputs": [
        {
          "indexed": false,
          "internalType": "uint256",
          "name": "basisPoints",
          "type": "uint256"
        }
      ],
      "name": "Rebased",
      "type": "event"
    },
    {
      "anonymous": false,
      "inputs": [
        {
          "indexed": true,
          "internalType": "address",
          "name": "from",
          "type": "address"
        },
        {
          "indexed": true,
          "internalType": "address",
          "name": "to",
          "type": "address"
        },
        {
          "indexed": false,
          "internalType": "uint256",
          "name": "value",
          "type": "uint256"
        }
      ],
      "name": "Transfer",
      "type": "event"
    },
    {
      "anonymous": false,
      "inputs": [
        {
          "indexed": false,
          "internalType": "address",
          "name": "wallet",
          "type": "address"
        }
      ],
      "name": "VestingCreditsIncremented",
      "type": "event"
    },
    {
      "anonymous": false,
      "inputs": [
        {
          "indexed": false,
          "internalType": "address",
          "name": "wallet",
          "type": "address"
        }
      ],
      "name": "VestingCreditsReset",
      "type": "event"
    },
    {
      "inputs": [],
      "name": "KEYCODE",
      "outputs": [
        {
          "internalType": "bytes3",
          "name": "",
          "type": "bytes3"
        }
      ],
      "stateMutability": "pure",
      "type": "function"
    },
    {
      "inputs": [],
      "name": "_proxy",
      "outputs": [
        {
          "internalType": "contract Proxy",
          "name": "",
          "type": "address"
        }
      ],
      "stateMutability": "view",
      "type": "function"
    },
    {
      "inputs": [
        {
          "internalType": "address",
          "name": "",
          "type": "address"
        },
        {
          "internalType": "address",
          "name": "",
          "type": "address"
        }
      ],
      "name": "allowance",
      "outputs": [
        {
          "internalType": "uint256",
          "name": "",
          "type": "uint256"
        }
      ],
      "stateMutability": "pure",
      "type": "function"
    },
    {
      "inputs": [
        {
          "internalType": "address",
          "name": "",
          "type": "address"
        },
        {
          "internalType": "uint256",
          "name": "",
          "type": "uint256"
        }
      ],
      "name": "approve",
      "outputs": [
        {
          "internalType": "bool",
          "name": "",
          "type": "bool"
        }
      ],
      "stateMutability": "pure",
      "type": "function"
    },
    {
      "inputs": [
        {
          "internalType": "address",
          "name": "wallet_",
          "type": "address"
        }
      ],
      "name": "balanceOf",
      "outputs": [
        {
          "internalType": "uint256",
          "name": "",
          "type": "uint256"
        }
      ],
      "stateMutability": "view",
      "type": "function"
    },
    {
      "inputs": [],
      "name": "currentIndex",
      "outputs": [
        {
          "internalType": "uint256",
          "name": "",
          "type": "uint256"
        }
      ],
      "stateMutability": "view",
      "type": "function"
    },
    {
      "inputs": [],
      "name": "decimals",
      "outputs": [
        {
          "internalType": "uint8",
          "name": "",
          "type": "uint8"
        }
      ],
      "stateMutability": "view",
      "type": "function"
    },
    {
      "inputs": [
        {
          "internalType": "address",
          "name": "wallet_",
          "type": "address"
        }
      ],
      "name": "incrementVestingCredits",
      "outputs": [],
      "stateMutability": "nonpayable",
      "type": "function"
    },
    {
      "inputs": [
        {
          "internalType": "address",
          "name": "to_",
          "type": "address"
        },
        {
          "internalType": "uint256",
          "name": "amount_",
          "type": "uint256"
        }
      ],
      "name": "issue",
      "outputs": [
        {
          "internalType": "uint256",
          "name": "",
          "type": "uint256"
        }
      ],
      "stateMutability": "nonpayable",
      "type": "function"
    },
    {
      "inputs": [],
      "name": "name",
      "outputs": [
        {
          "internalType": "string",
          "name": "",
          "type": "string"
        }
      ],
      "stateMutability": "view",
      "type": "function"
    },
    {
      "inputs": [
        {
          "internalType": "uint256",
          "name": "basisPoints_",
          "type": "uint256"
        }
      ],
      "name": "rebase",
      "outputs": [],
      "stateMutability": "nonpayable",
      "type": "function"
    },
    {
      "inputs": [
        {
          "internalType": "address",
          "name": "from_",
          "type": "address"
        },
        {
          "internalType": "uint256",
          "name": "amount_",
          "type": "uint256"
        }
      ],
      "name": "redeem",
      "outputs": [
        {
          "internalType": "uint256",
          "name": "",
          "type": "uint256"
        }
      ],
      "stateMutability": "nonpayable",
      "type": "function"
    },
    {
      "inputs": [
        {
          "internalType": "address",
          "name": "wallet_",
          "type": "address"
        }
      ],
      "name": "resetVestingCredits",
      "outputs": [],
      "stateMutability": "nonpayable",
      "type": "function"
    },
    {
      "inputs": [],
      "name": "symbol",
      "outputs": [
        {
          "internalType": "string",
          "name": "",
          "type": "string"
        }
      ],
      "stateMutability": "view",
      "type": "function"
    },
    {
      "inputs": [],
      "name": "totalSupply",
      "outputs": [
        {
          "internalType": "uint256",
          "name": "",
          "type": "uint256"
        }
      ],
      "stateMutability": "view",
      "type": "function"
    },
    {
      "inputs": [
        {
          "internalType": "address",
          "name": "",
          "type": "address"
        },
        {
          "internalType": "uint256",
          "name": "",
          "type": "uint256"
        }
      ],
      "name": "transfer",
      "outputs": [
        {
          "internalType": "bool",
          "name": "",
          "type": "bool"
        }
      ],
      "stateMutability": "pure",
      "type": "function"
    },
    {
      "inputs": [
        {
          "internalType": "address",
          "name": "",
          "type": "address"
        },
        {
          "internalType": "address",
          "name": "",
          "type": "address"
        },
        {
          "internalType": "uint256",
          "name": "",
          "type": "uint256"
        }
      ],
      "name": "transferFrom",
      "outputs": [
        {
          "internalType": "bool",
          "name": "",
          "type": "bool"
        }
      ],
      "stateMutability": "pure",
      "type": "function"
    },
    {
      "inputs": [
        {
          "internalType": "address",
          "name": "",
          "type": "address"
        }
      ],
      "name": "vestingCreditsOf",
      "outputs": [
        {
          "internalType": "uint16",
          "name": "",
          "type": "uint16"
        }
      ],
      "stateMutability": "view",
      "type": "function"
    },
    {
      "inputs": [],
      "name": "vestingTerm",
      "outputs": [
        {
          "internalType": "uint16",
          "name": "",
          "type": "uint16"
        }
      ],
      "stateMutability": "view",
      "type": "function"
    }
  ],
  "transactionHash": "0x267fb0e31d9323abdab1533964b3e4a3484f05560bee61866cc43054df7c4a62",
  "args": [
    "0xc4e2584DbD21c1a77CE15F63e738985d6FADf3De"
  ],
  "numDeployments": 2,
  "solcInputHash": "389fa6c06fc73f4f06f330cf536065fb",
  "bytecode": "0x60c06040526012608081905271282927ac2c902b37ba34b733902837bbb2b960711b60a0908152620000359160019190620000e1565b50604080518082019091526005808252640cea0a49eb60db1b60209092019182526200006491600291620000e1565b506003805460ff191681179055620f424060045560006005556007805461ffff1916600f1790553480156200009857600080fd5b50604051620012e4380380620012e4833981016040819052620000bb9162000187565b600080546001600160a01b0319166001600160a01b0392909216919091179055620001f6565b828054620000ef90620001b9565b90600052602060002090601f0160209004810192826200011357600085556200015e565b82601f106200012e57805160ff19168380011785556200015e565b828001600101855582156200015e579182015b828111156200015e57825182559160200191906001019062000141565b506200016c92915062000170565b5090565b5b808211156200016c576000815560010162000171565b6000602082840312156200019a57600080fd5b81516001600160a01b0381168114620001b257600080fd5b9392505050565b600181811c90821680620001ce57607f821691505b60208210811415620001f057634e487b7160e01b600052602260045260246000fd5b50919050565b6110de80620002066000396000f3fe608060405234801561001057600080fd5b50600436106101515760003560e01c806335aa98c4116100cd578063ba176a9a11610081578063cc2effdc11610066578063cc2effdc146102c9578063dd62ed3e1461030e578063f01166441461034357600080fd5b8063ba176a9a14610295578063bc4f2d6d146102b657600080fd5b8063867904b4116100b2578063867904b41461026757806395d89b411461027a578063a9059cbb1461028257600080fd5b806335aa98c41461024157806370a082311461025457600080fd5b80631e9a69501161012457806326987b601161010957806326987b60146102045780632d9708a01461020d578063313ce5671461022257600080fd5b80631e9a6950146101de57806323b872dd146101f157600080fd5b806306fdde0314610156578063095ea7b31461017457806318160ddd1461019a5780631ae7ec2e146101b0575b600080fd5b61015e610367565b60405161016b9190610d9b565b60405180910390f35b61018a610182366004610e37565b600192915050565b604051901515815260200161016b565b6101a26103f5565b60405190815260200161016b565b6040517f5654500000000000000000000000000000000000000000000000000000000000815260200161016b565b6101a26101ec366004610e37565b61041a565b61018a6101ff366004610e61565b61063c565b6101a260045481565b61022061021b366004610e9d565b610650565b005b60035461022f9060ff1681565b60405160ff909116815260200161016b565b61022061024f366004610e9d565b6107f1565b6101a2610262366004610e9d565b6109aa565b6101a2610275366004610e37565b6109f4565b61015e610c06565b61018a610290366004610e37565b610c13565b6007546102a39061ffff1681565b60405161ffff909116815260200161016b565b6102206102c4366004610ebf565b610c26565b6000546102e99073ffffffffffffffffffffffffffffffffffffffff1681565b60405173ffffffffffffffffffffffffffffffffffffffff909116815260200161016b565b6101a261031c366004610ed8565b7fffffffffffffffffffffffffffffffffffffffffffffffffffffffffffffffff92915050565b6102a3610351366004610e9d565b60086020526000908152604090205461ffff1681565b6001805461037490610f0b565b80601f01602080910402602001604051908101604052809291908181526020018280546103a090610f0b565b80156103ed5780601f106103c2576101008083540402835291602001916103ed565b820191906000526020600020905b8154815290600101906020018083116103d057829003601f168201915b505050505081565b6000620f424060045460055461040b9190610f8e565b6104159190610fcb565b905090565b600080546040517f1d10fc6400000000000000000000000000000000000000000000000000000000815233600482015273ffffffffffffffffffffffffffffffffffffffff90911690631d10fc6490602401602060405180830381865afa158015610489573d6000803e3d6000fd5b505050506040513d601f19601f820116820180604052508101906104ad9190611006565b61053e576040517f08c379a000000000000000000000000000000000000000000000000000000000815260206004820152603b60248201527f6f6e6c79506f6c69637928293a206f6e6c7920617070726f76656420706f6c6960448201527f636965732063616e2063616c6c20746869732066756e6374696f6e000000000060648201526084015b60405180910390fd5b60045460009061055184620f4240610f8e565b61055b9190610fcb565b33600090815260086020908152604080832080547fffffffffffffffffffffffffffffffffffffffffffffffffffffffffffff000016905573ffffffffffffffffffffffffffffffffffffffff8816835260069091528120805492935083929091906105c8908490611028565b9250508190555080600560008282546105e19190611028565b909155505060405183815260009073ffffffffffffffffffffffffffffffffffffffff8616907fddf252ad1be2c89b69c2b068fc378daa952ba7f163c4a11628f55a4df523b3ef906020015b60405180910390a39392505050565b600061064661103f565b5060019392505050565b6000546040517f1d10fc6400000000000000000000000000000000000000000000000000000000815233600482015273ffffffffffffffffffffffffffffffffffffffff90911690631d10fc6490602401602060405180830381865afa1580156106be573d6000803e3d6000fd5b505050506040513d601f19601f820116820180604052508101906106e29190611006565b61076e576040517f08c379a000000000000000000000000000000000000000000000000000000000815260206004820152603b60248201527f6f6e6c79506f6c69637928293a206f6e6c7920617070726f76656420706f6c6960448201527f636965732063616e2063616c6c20746869732066756e6374696f6e00000000006064820152608401610535565b73ffffffffffffffffffffffffffffffffffffffff811660008181526008602090815260409182902080547fffffffffffffffffffffffffffffffffffffffffffffffffffffffffffff000016905590519182527f0ad4de0a53a4c48cb5cf7cb8dc09d71e748964b34e061454cd0d8a46f1d4b71891015b60405180910390a150565b6000546040517f1d10fc6400000000000000000000000000000000000000000000000000000000815233600482015273ffffffffffffffffffffffffffffffffffffffff90911690631d10fc6490602401602060405180830381865afa15801561085f573d6000803e3d6000fd5b505050506040513d601f19601f820116820180604052508101906108839190611006565b61090f576040517f08c379a000000000000000000000000000000000000000000000000000000000815260206004820152603b60248201527f6f6e6c79506f6c69637928293a206f6e6c7920617070726f76656420706f6c6960448201527f636965732063616e2063616c6c20746869732066756e6374696f6e00000000006064820152608401610535565b73ffffffffffffffffffffffffffffffffffffffff81166000908152600860205260408120805461ffff16916109448361106e565b91906101000a81548161ffff021916908361ffff160217905550507f47f0cc66ac7c8b4600f45b11f75b7c66d1c935225452a4c5c3dc87b4207ed006816040516107e6919073ffffffffffffffffffffffffffffffffffffffff91909116815260200190565b60045473ffffffffffffffffffffffffffffffffffffffff82166000908152600660205260408120549091620f4240916109e49190610f8e565b6109ee9190610fcb565b92915050565b600080546040517f1d10fc6400000000000000000000000000000000000000000000000000000000815233600482015273ffffffffffffffffffffffffffffffffffffffff90911690631d10fc6490602401602060405180830381865afa158015610a63573d6000803e3d6000fd5b505050506040513d601f19601f82011682018060405250810190610a879190611006565b610b13576040517f08c379a000000000000000000000000000000000000000000000000000000000815260206004820152603b60248201527f6f6e6c79506f6c69637928293a206f6e6c7920617070726f76656420706f6c6960448201527f636965732063616e2063616c6c20746869732066756e6374696f6e00000000006064820152608401610535565b600454600090610b2684620f4240610f8e565b610b309190610fcb565b33600090815260086020526040812080547fffffffffffffffffffffffffffffffffffffffffffffffffffffffffffff0000169055600580549293508392909190610b7c908490611090565b909155505073ffffffffffffffffffffffffffffffffffffffff841660009081526006602052604081208054839290610bb6908490611090565b909155505060405183815273ffffffffffffffffffffffffffffffffffffffff8516906000907fddf252ad1be2c89b69c2b068fc378daa952ba7f163c4a11628f55a4df523b3ef9060200161062d565b6002805461037490610f0b565b6000610c1d61103f565b50600192915050565b6000546040517f1d10fc6400000000000000000000000000000000000000000000000000000000815233600482015273ffffffffffffffffffffffffffffffffffffffff90911690631d10fc6490602401602060405180830381865afa158015610c94573d6000803e3d6000fd5b505050506040513d601f19601f82011682018060405250810190610cb89190611006565b610d44576040517f08c379a000000000000000000000000000000000000000000000000000000000815260206004820152603b60248201527f6f6e6c79506f6c69637928293a206f6e6c7920617070726f76656420706f6c6960448201527f636965732063616e2063616c6c20746869732066756e6374696f6e00000000006064820152608401610535565b612710610d518282611090565b600454610d5e9190610f8e565b610d689190610fcb565b6004556040518181527fa3e5fc7a6648da6157201f1e26fcbbfeee8088fb7914fb85edf2056040c234c5906020016107e6565b600060208083528351808285015260005b81811015610dc857858101830151858201604001528201610dac565b81811115610dda576000604083870101525b50601f017fffffffffffffffffffffffffffffffffffffffffffffffffffffffffffffffe016929092016040019392505050565b803573ffffffffffffffffffffffffffffffffffffffff81168114610e3257600080fd5b919050565b60008060408385031215610e4a57600080fd5b610e5383610e0e565b946020939093013593505050565b600080600060608486031215610e7657600080fd5b610e7f84610e0e565b9250610e8d60208501610e0e565b9150604084013590509250925092565b600060208284031215610eaf57600080fd5b610eb882610e0e565b9392505050565b600060208284031215610ed157600080fd5b5035919050565b60008060408385031215610eeb57600080fd5b610ef483610e0e565b9150610f0260208401610e0e565b90509250929050565b600181811c90821680610f1f57607f821691505b60208210811415610f59577f4e487b7100000000000000000000000000000000000000000000000000000000600052602260045260246000fd5b50919050565b7f4e487b7100000000000000000000000000000000000000000000000000000000600052601160045260246000fd5b6000817fffffffffffffffffffffffffffffffffffffffffffffffffffffffffffffffff0483118215151615610fc657610fc6610f5f565b500290565b600082611001577f4e487b7100000000000000000000000000000000000000000000000000000000600052601260045260246000fd5b500490565b60006020828403121561101857600080fd5b81518015158114610eb857600080fd5b60008282101561103a5761103a610f5f565b500390565b7f4e487b7100000000000000000000000000000000000000000000000000000000600052600160045260246000fd5b600061ffff8083168181141561108657611086610f5f565b6001019392505050565b600082198211156110a3576110a3610f5f565b50019056fea26469706673582212204076dbdcf145cadc7246d1b388c6d35fde715021b244c8dad4f208db4aecc9a664736f6c634300080b0033",
  "devdoc": {
    "kind": "dev",
    "methods": {
      "totalSupply()": {
        "details": "Returns the amount of tokens in existence."
      }
    },
    "version": 1
  },
  "userdoc": {
    "kind": "user",
    "methods": {},
    "version": 1
  },
  "storageLayout": {
    "storage": [
      {
        "astId": 4378,
        "contract": "contracts/Systems/VTP.sol:VotingPower",
        "label": "_proxy",
        "offset": 0,
        "slot": "0",
        "type": "t_contract(Proxy)4866"
      },
      {
        "astId": 5958,
        "contract": "contracts/Systems/VTP.sol:VotingPower",
        "label": "name",
        "offset": 0,
        "slot": "1",
        "type": "t_string_storage"
      },
      {
        "astId": 5961,
        "contract": "contracts/Systems/VTP.sol:VotingPower",
        "label": "symbol",
        "offset": 0,
        "slot": "2",
        "type": "t_string_storage"
      },
      {
        "astId": 5964,
        "contract": "contracts/Systems/VTP.sol:VotingPower",
        "label": "decimals",
        "offset": 0,
        "slot": "3",
        "type": "t_uint8"
      },
      {
        "astId": 5967,
        "contract": "contracts/Systems/VTP.sol:VotingPower",
        "label": "currentIndex",
        "offset": 0,
        "slot": "4",
        "type": "t_uint256"
      },
      {
        "astId": 5970,
        "contract": "contracts/Systems/VTP.sol:VotingPower",
        "label": "_totalBaseSupply",
        "offset": 0,
        "slot": "5",
        "type": "t_uint256"
      },
      {
        "astId": 5974,
        "contract": "contracts/Systems/VTP.sol:VotingPower",
        "label": "_baseBalanceOf",
        "offset": 0,
        "slot": "6",
        "type": "t_mapping(t_address,t_uint256)"
      },
      {
        "astId": 5977,
        "contract": "contracts/Systems/VTP.sol:VotingPower",
        "label": "vestingTerm",
        "offset": 0,
        "slot": "7",
        "type": "t_uint16"
      },
      {
        "astId": 5981,
        "contract": "contracts/Systems/VTP.sol:VotingPower",
        "label": "vestingCreditsOf",
        "offset": 0,
        "slot": "8",
        "type": "t_mapping(t_address,t_uint16)"
      }
    ],
    "types": {
      "t_address": {
        "encoding": "inplace",
        "label": "address",
        "numberOfBytes": "20"
      },
      "t_contract(Proxy)4866": {
        "encoding": "inplace",
        "label": "contract Proxy",
        "numberOfBytes": "20"
      },
      "t_mapping(t_address,t_uint16)": {
        "encoding": "mapping",
        "key": "t_address",
        "label": "mapping(address => uint16)",
        "numberOfBytes": "32",
        "value": "t_uint16"
      },
      "t_mapping(t_address,t_uint256)": {
        "encoding": "mapping",
        "key": "t_address",
        "label": "mapping(address => uint256)",
        "numberOfBytes": "32",
        "value": "t_uint256"
      },
      "t_string_storage": {
        "encoding": "bytes",
        "label": "string",
        "numberOfBytes": "32"
      },
      "t_uint16": {
        "encoding": "inplace",
        "label": "uint16",
        "numberOfBytes": "2"
      },
      "t_uint256": {
        "encoding": "inplace",
        "label": "uint256",
        "numberOfBytes": "32"
      },
      "t_uint8": {
        "encoding": "inplace",
        "label": "uint8",
        "numberOfBytes": "1"
      }
    }
  }
}