{
  "address": "0xA7CCAcf240e6401C34e88cF0572A76eCb2fc26Ec",
  "abi": [
    {
      "inputs": [
        {
          "internalType": "contract Proxy",
          "name": "proxy_",
          "type": "address"
        }
      ],
      "stateMutability": "nonpayable",
      "type": "constructor"
    },
    {
      "anonymous": false,
      "inputs": [
        {
          "indexed": true,
          "internalType": "address",
          "name": "previousOwner",
          "type": "address"
        },
        {
          "indexed": true,
          "internalType": "address",
          "name": "newOwner",
          "type": "address"
        }
      ],
      "name": "OwnershipTransferred",
      "type": "event"
    },
    {
      "inputs": [],
      "name": "_proxy",
      "outputs": [
        {
          "internalType": "contract Proxy",
          "name": "",
          "type": "address"
        }
      ],
      "stateMutability": "view",
      "type": "function"
    },
    {
      "inputs": [],
      "name": "configureSystems",
      "outputs": [],
      "stateMutability": "nonpayable",
      "type": "function"
    },
    {
      "inputs": [
        {
          "internalType": "uint32",
          "name": "proposalId_",
          "type": "uint32"
        }
      ],
      "name": "executeInstructions",
      "outputs": [],
      "stateMutability": "nonpayable",
      "type": "function"
    },
    {
      "inputs": [],
      "name": "launchProxy",
      "outputs": [],
      "stateMutability": "nonpayable",
      "type": "function"
    },
    {
      "inputs": [],
      "name": "owner",
      "outputs": [
        {
          "internalType": "address",
          "name": "",
          "type": "address"
        }
      ],
      "stateMutability": "view",
      "type": "function"
    },
    {
      "inputs": [],
      "name": "renounceOwnership",
      "outputs": [],
      "stateMutability": "nonpayable",
      "type": "function"
    },
    {
      "inputs": [
        {
          "components": [
            {
              "internalType": "enum Actions",
              "name": "action",
              "type": "uint8"
            },
            {
              "internalType": "address",
              "name": "target",
              "type": "address"
            }
          ],
          "internalType": "struct Instruction[]",
          "name": "instructions",
          "type": "tuple[]"
        }
      ],
      "name": "storeInstructions",
      "outputs": [],
      "stateMutability": "nonpayable",
      "type": "function"
    },
    {
      "inputs": [
        {
          "internalType": "address",
          "name": "newOwner",
          "type": "address"
        }
      ],
      "name": "transferOwnership",
      "outputs": [],
      "stateMutability": "nonpayable",
      "type": "function"
    }
  ],
  "transactionHash": "0xd121ddfdb63c08586e3760583fdf6f2c0cc749d0d861baf47732bed071444cbf",
  "args": [
    "0x093473009D8c3e8c0a14c80b24fDC16D3b6eed92"
  ],
  "numDeployments": 1,
  "solcInputHash": "dd20dabda5042d782af117ad6e9fcf3c",
  "bytecode": "0x608060405234801561001057600080fd5b50604051610bfd380380610bfd83398101604081905261002f916100b1565b600080546001600160a01b0319166001600160a01b0383161790556100596100543390565b61005f565b506100e1565b600180546001600160a01b038381166001600160a01b0319831681179093556040519116919082907f8be0079c531659141344cd1fd0a4f28419497f9722a3daafe3b4186f6b6457e090600090a35050565b6000602082840312156100c357600080fd5b81516001600160a01b03811681146100da57600080fd5b9392505050565b610b0d806100f06000396000f3fe608060405234801561001057600080fd5b50600436106100885760003560e01c80639b9a2a741161005b5780639b9a2a74146100f5578063cc2effdc14610108578063e51f923214610128578063f2fde38b1461013057600080fd5b806318dc0de71461008d578063715018a6146100a257806385e0d8ad146100aa5780638da5cb5b146100b2575b600080fd5b6100a061009b36600461094c565b610143565b005b6100a0610269565b6100a06102f6565b60015473ffffffffffffffffffffffffffffffffffffffff165b60405173ffffffffffffffffffffffffffffffffffffffff909116815260200160405180910390f35b6100a06101033660046109c1565b6103fb565b6000546100cc9073ffffffffffffffffffffffffffffffffffffffff1681565b6100a0610508565b6100a061013e366004610a10565b610645565b60015473ffffffffffffffffffffffffffffffffffffffff1633146101c9576040517f08c379a000000000000000000000000000000000000000000000000000000000815260206004820181905260248201527f4f776e61626c653a2063616c6c6572206973206e6f7420746865206f776e657260448201526064015b60405180910390fd5b6002546040517f18dc0de700000000000000000000000000000000000000000000000000000000815273ffffffffffffffffffffffffffffffffffffffff909116906318dc0de7906102219085908590600401610a2d565b6020604051808303816000875af1158015610240573d6000803e3d6000fd5b505050506040513d601f19601f820116820180604052508101906102649190610aa1565b505050565b60015473ffffffffffffffffffffffffffffffffffffffff1633146102ea576040517f08c379a000000000000000000000000000000000000000000000000000000000815260206004820181905260248201527f4f776e61626c653a2063616c6c6572206973206e6f7420746865206f776e657260448201526064016101c0565b6102f46000610775565b565b60015473ffffffffffffffffffffffffffffffffffffffff163314610377576040517f08c379a000000000000000000000000000000000000000000000000000000000815260206004820181905260248201527f4f776e61626c653a2063616c6c6572206973206e6f7420746865206f776e657260448201526064016101c0565b600260009054906101000a900473ffffffffffffffffffffffffffffffffffffffff1673ffffffffffffffffffffffffffffffffffffffff166385e0d8ad6040518163ffffffff1660e01b8152600401600060405180830381600087803b1580156103e157600080fd5b505af11580156103f5573d6000803e3d6000fd5b50505050565b60015473ffffffffffffffffffffffffffffffffffffffff16331461047c576040517f08c379a000000000000000000000000000000000000000000000000000000000815260206004820181905260248201527f4f776e61626c653a2063616c6c6572206973206e6f7420746865206f776e657260448201526064016101c0565b6002546040517f2ce2190100000000000000000000000000000000000000000000000000000000815263ffffffff8316600482015273ffffffffffffffffffffffffffffffffffffffff90911690632ce2190190602401600060405180830381600087803b1580156104ed57600080fd5b505af1158015610501573d6000803e3d6000fd5b5050505050565b60005473ffffffffffffffffffffffffffffffffffffffff1633146105d5576040517f08c379a000000000000000000000000000000000000000000000000000000000815260206004820152604860248201527f63616e6e6f7420636f6e66696775726553797374656d7328293a206f6e6c792060448201527f7468652050726f787920636f6e74726163742063616e20636f6e66696775726560648201527f2073797374656d73000000000000000000000000000000000000000000000000608482015260a4016101c0565b6105fe7f45584300000000000000000000000000000000000000000000000000000000006107ec565b600280547fffffffffffffffffffffffff00000000000000000000000000000000000000001673ffffffffffffffffffffffffffffffffffffffff92909216919091179055565b60015473ffffffffffffffffffffffffffffffffffffffff1633146106c6576040517f08c379a000000000000000000000000000000000000000000000000000000000815260206004820181905260248201527f4f776e61626c653a2063616c6c6572206973206e6f7420746865206f776e657260448201526064016101c0565b73ffffffffffffffffffffffffffffffffffffffff8116610769576040517f08c379a000000000000000000000000000000000000000000000000000000000815260206004820152602660248201527f4f776e61626c653a206e6577206f776e657220697320746865207a65726f206160448201527f646472657373000000000000000000000000000000000000000000000000000060648201526084016101c0565b61077281610775565b50565b6001805473ffffffffffffffffffffffffffffffffffffffff8381167fffffffffffffffffffffffff0000000000000000000000000000000000000000831681179093556040519116919082907f8be0079c531659141344cd1fd0a4f28419497f9722a3daafe3b4186f6b6457e090600090a35050565b600080546040517fec364d880000000000000000000000000000000000000000000000000000000081527fffffff000000000000000000000000000000000000000000000000000000000084166004820152829173ffffffffffffffffffffffffffffffffffffffff169063ec364d8890602401602060405180830381865afa15801561087d573d6000803e3d6000fd5b505050506040513d601f19601f820116820180604052508101906108a19190610aba565b905073ffffffffffffffffffffffffffffffffffffffff8116610946576040517f08c379a000000000000000000000000000000000000000000000000000000000815260206004820152602d60248201527f63616e6e6f74205f72657175697265537974656d28293a2073797374656d206460448201527f6f6573206e6f742065786973740000000000000000000000000000000000000060648201526084016101c0565b92915050565b6000806020838503121561095f57600080fd5b823567ffffffffffffffff8082111561097757600080fd5b818501915085601f83011261098b57600080fd5b81358181111561099a57600080fd5b8660208260061b85010111156109af57600080fd5b60209290920196919550909350505050565b6000602082840312156109d357600080fd5b813563ffffffff811681146109e757600080fd5b9392505050565b73ffffffffffffffffffffffffffffffffffffffff8116811461077257600080fd5b600060208284031215610a2257600080fd5b81356109e7816109ee565b602080825281810183905260009060408084018684805b88811015610a9357823560058110610a5a578283fd5b845282860135610a69816109ee565b73ffffffffffffffffffffffffffffffffffffffff16848701529284019291840191600101610a44565b509198975050505050505050565b600060208284031215610ab357600080fd5b5051919050565b600060208284031215610acc57600080fd5b81516109e7816109ee56fea26469706673582212208415059af8ed9d91c8b57cfd0b2ac45dd5dd1e72118d3e5bcc7bc2b883a8c46b64736f6c634300080b0033",
  "devdoc": {
    "kind": "dev",
    "methods": {
      "owner()": {
        "details": "Returns the address of the current owner."
      },
      "renounceOwnership()": {
        "details": "Leaves the contract without owner. It will not be possible to call `onlyOwner` functions anymore. Can only be called by the current owner. NOTE: Renouncing ownership will leave the contract without an owner, thereby removing any functionality that is only available to the owner."
      },
      "transferOwnership(address)": {
        "details": "Transfers ownership of the contract to a new account (`newOwner`). Can only be called by the current owner."
      }
    },
    "version": 1
  },
  "userdoc": {
    "kind": "user",
    "methods": {},
    "version": 1
  },
  "storageLayout": {
    "storage": [
      {
        "astId": 4555,
        "contract": "contracts/Policies/Testing/_MOCK_POLICIES.sol:ExecutivePolicy",
        "label": "_proxy",
        "offset": 0,
        "slot": "0",
        "type": "t_contract(Proxy)5007"
      },
      {
        "astId": 539,
        "contract": "contracts/Policies/Testing/_MOCK_POLICIES.sol:ExecutivePolicy",
        "label": "_owner",
        "offset": 0,
        "slot": "1",
        "type": "t_address"
      },
      {
        "astId": 3795,
        "contract": "contracts/Policies/Testing/_MOCK_POLICIES.sol:ExecutivePolicy",
        "label": "EXC",
        "offset": 0,
        "slot": "2",
        "type": "t_contract(Executive)5314"
      }
    ],
    "types": {
      "t_address": {
        "encoding": "inplace",
        "label": "address",
        "numberOfBytes": "20"
      },
      "t_contract(Executive)5314": {
        "encoding": "inplace",
        "label": "contract Executive",
        "numberOfBytes": "20"
      },
      "t_contract(Proxy)5007": {
        "encoding": "inplace",
        "label": "contract Proxy",
        "numberOfBytes": "20"
      }
    }
  }
}