{
  "address": "0x29de6384dcaAF99270badC59099c58a77fd54046",
  "abi": [
    {
      "inputs": [
        {
          "internalType": "contract Proxy",
          "name": "Proxy_",
          "type": "address"
        }
      ],
      "stateMutability": "nonpayable",
      "type": "constructor"
    },
    {
      "inputs": [],
      "name": "_proxy",
      "outputs": [
        {
          "internalType": "contract Proxy",
          "name": "",
          "type": "address"
        }
      ],
      "stateMutability": "view",
      "type": "function"
    },
    {
      "inputs": [],
      "name": "configureSystems",
      "outputs": [],
      "stateMutability": "nonpayable",
      "type": "function"
    },
    {
      "inputs": [
        {
          "internalType": "uint256",
          "name": "instructionsId_",
          "type": "uint256"
        }
      ],
      "name": "endorseProposal",
      "outputs": [],
      "stateMutability": "nonpayable",
      "type": "function"
    },
    {
      "inputs": [
        {
          "internalType": "uint256",
          "name": "",
          "type": "uint256"
        }
      ],
      "name": "endorsementsForProposal",
      "outputs": [
        {
          "internalType": "uint256",
          "name": "",
          "type": "uint256"
        }
      ],
      "stateMutability": "view",
      "type": "function"
    },
    {
      "inputs": [
        {
          "internalType": "uint256",
          "name": "",
          "type": "uint256"
        }
      ],
      "name": "netVotesForProposal",
      "outputs": [
        {
          "internalType": "int256",
          "name": "",
          "type": "int256"
        }
      ],
      "stateMutability": "view",
      "type": "function"
    },
    {
      "inputs": [
        {
          "internalType": "uint256",
          "name": "",
          "type": "uint256"
        }
      ],
      "name": "proposalForInstructionsId",
      "outputs": [
        {
          "internalType": "bytes32",
          "name": "name",
          "type": "bytes32"
        },
        {
          "internalType": "uint256",
          "name": "instructionsId",
          "type": "uint256"
        },
        {
          "internalType": "address",
          "name": "proposer",
          "type": "address"
        }
      ],
      "stateMutability": "view",
      "type": "function"
    },
    {
      "inputs": [
        {
          "internalType": "uint256",
          "name": "",
          "type": "uint256"
        }
      ],
      "name": "proposalHasStaged",
      "outputs": [
        {
          "internalType": "bool",
          "name": "",
          "type": "bool"
        }
      ],
      "stateMutability": "view",
      "type": "function"
    },
    {
      "inputs": [
        {
          "internalType": "uint256",
          "name": "instructionsId_",
          "type": "uint256"
        }
      ],
      "name": "stageProposal",
      "outputs": [],
      "stateMutability": "nonpayable",
      "type": "function"
    },
    {
      "inputs": [],
      "name": "stagedProposal",
      "outputs": [
        {
          "internalType": "uint256",
          "name": "instructionsId",
          "type": "uint256"
        },
        {
          "internalType": "uint256",
          "name": "epochStaged",
          "type": "uint256"
        }
      ],
      "stateMutability": "view",
      "type": "function"
    },
    {
      "inputs": [
        {
          "internalType": "bytes32",
          "name": "proposalName_",
          "type": "bytes32"
        },
        {
          "components": [
            {
              "internalType": "enum Actions",
              "name": "action",
              "type": "uint8"
            },
            {
              "internalType": "address",
              "name": "target",
              "type": "address"
            }
          ],
          "internalType": "struct Instruction[]",
          "name": "instructions_",
          "type": "tuple[]"
        },
        {
          "internalType": "bytes2[]",
          "name": "coauthors_",
          "type": "bytes2[]"
        }
      ],
      "name": "submitProposal",
      "outputs": [],
      "stateMutability": "nonpayable",
      "type": "function"
    },
    {
      "inputs": [
        {
          "internalType": "address",
          "name": "",
          "type": "address"
        },
        {
          "internalType": "uint256",
          "name": "",
          "type": "uint256"
        }
      ],
      "name": "userEndorsementsForProposal",
      "outputs": [
        {
          "internalType": "uint256",
          "name": "",
          "type": "uint256"
        }
      ],
      "stateMutability": "view",
      "type": "function"
    },
    {
      "inputs": [
        {
          "internalType": "address",
          "name": "",
          "type": "address"
        },
        {
          "internalType": "uint256",
          "name": "",
          "type": "uint256"
        }
      ],
      "name": "userNetVotesForProposal",
      "outputs": [
        {
          "internalType": "int256",
          "name": "",
          "type": "int256"
        }
      ],
      "stateMutability": "view",
      "type": "function"
    },
    {
      "inputs": [
        {
          "internalType": "bool",
          "name": "vote_",
          "type": "bool"
        }
      ],
      "name": "vote",
      "outputs": [],
      "stateMutability": "nonpayable",
      "type": "function"
    }
  ],
  "transactionHash": "0x7f665f3f3a8c09ae82732bd29f269c6f8efe2b7d705e117c2f9d665d213bf2ff",
  "args": [
    "0x093473009D8c3e8c0a14c80b24fDC16D3b6eed92"
  ],
  "numDeployments": 1,
  "solcInputHash": "dd20dabda5042d782af117ad6e9fcf3c",
  "bytecode": "0x608060405234801561001057600080fd5b50604051620022a1380380620022a183398101604081905261003191610056565b600080546001600160a01b0319166001600160a01b0392909216919091179055610086565b60006020828403121561006857600080fd5b81516001600160a01b038116811461007f57600080fd5b9392505050565b61220b80620000966000396000f3fe608060405234801561001057600080fd5b50600436106100df5760003560e01c8063bcb367201161008c578063d175506711610066578063d175506714610243578063e51f923214610256578063e9174d9d1461025e578063ff3efcda146102d457600080fd5b8063bcb36720146101c8578063bee71a6d146101db578063cc2effdc146101fe57600080fd5b806385d63924116100bd57806385d639241461015f57806387f9534714610172578063b8e74cd41461019d57600080fd5b806304155487146100e457806328dcc718146101175780634b9f5c981461014a575b600080fd5b6101046100f2366004611c35565b600a6020526000908152604090205481565b6040519081526020015b60405180910390f35b61013a610125366004611c35565b60086020526000908152604090205460ff1681565b604051901515815260200161010e565b61015d610158366004611c5f565b6102f4565b005b61015d61016d366004611ccf565b610ba0565b610104610180366004611d9c565b600d60209081526000928352604080842090915290825290205481565b6101046101ab366004611d9c565b600b60209081526000928352604080842090915290825290205481565b61015d6101d6366004611c35565b6111a3565b6006546007546101e9919082565b6040805192835260208301919091520161010e565b60005461021e9073ffffffffffffffffffffffffffffffffffffffff1681565b60405173ffffffffffffffffffffffffffffffffffffffff909116815260200161010e565b61015d610251366004611c35565b611629565b61015d6117f0565b6102a361026c366004611c35565b60096020526000908152604090208054600182015460029092015490919073ffffffffffffffffffffffffffffffffffffffff1683565b60408051938452602084019290925273ffffffffffffffffffffffffffffffffffffffff169082015260600161010e565b6101046102e2366004611c35565b600c6020526000908152604090205481565b6005546040517f70a0823100000000000000000000000000000000000000000000000000000000815233600482015260009173ffffffffffffffffffffffffffffffffffffffff16906370a0823190602401602060405180830381865afa158015610363573d6000803e3d6000fd5b505050506040513d601f19601f820116820180604052508101906103879190611dc8565b90506000826103bf576103ba827fffffffffffffffffffffffffffffffffffffffffffffffffffffffffffffffff611e10565b6103c1565b815b336000908152600d60209081526040808320600654845290915290205490915015610473576040517f08c379a000000000000000000000000000000000000000000000000000000000815260206004820152603660248201527f63616e6e6f7420766f74654f6e53746167656450726f706f73616c28293a207560448201527f7365722063616e206f6e6c7920766f7465206f6e63650000000000000000000060648201526084015b60405180910390fd5b336000908152600d60209081526040808320600680548552908352818420859055548352600c909152812080548392906104ae908490611ecc565b9091555050600554604080517f18160ddd0000000000000000000000000000000000000000000000000000000081529051600a9273ffffffffffffffffffffffffffffffffffffffff16916318160ddd9160048083019260209291908290030181865afa158015610523573d6000803e3d6000fd5b505050506040513d601f19601f820116820180604052508101906105479190611dc8565b610552906004611f40565b61055c9190611fac565b6006546000908152600c60205260409020541315610a165760065460009081526009602090815260408083206003018054825181850281018501909352808352919290919083018282801561061457602002820191906000526020600020906000905b82829054906101000a900460f01b7dffffffffffffffffffffffffffffffffffffffffffffffffffffffffffff1916815260200190600201906020826001010492830192600103820291508084116105bf5790505b50505050509050600081516064600560009054906101000a900473ffffffffffffffffffffffffffffffffffffffff1673ffffffffffffffffffffffffffffffffffffffff166318160ddd6040518163ffffffff1660e01b8152600401602060405180830381865afa15801561068e573d6000803e3d6000fd5b505050506040513d601f19601f820116820180604052508101906106b29190611dc8565b6106bd906002611f40565b6106c79190611fac565b6106d19190611fac565b905060005b82518110156108dc57600454835160009173ffffffffffffffffffffffffffffffffffffffff1690631a525da99086908590811061071657610716611fc0565b60200260200101516040518263ffffffff1660e01b815260040161076291907fffff00000000000000000000000000000000000000000000000000000000000091909116815260200190565b602060405180830381865afa15801561077f573d6000803e3d6000fd5b505050506040513d601f19601f820116820180604052508101906107a39190611fef565b6002546040517f40c10f1900000000000000000000000000000000000000000000000000000000815273ffffffffffffffffffffffffffffffffffffffff8084166004830152602482018790529293509116906340c10f19906044016020604051808303816000875af115801561081e573d6000803e3d6000fd5b505050506040513d601f19601f82011682018060405250810190610842919061200c565b506005546040517f2d9708a000000000000000000000000000000000000000000000000000000000815273ffffffffffffffffffffffffffffffffffffffff838116600483015290911690632d9708a090602401600060405180830381600087803b1580156108b057600080fd5b505af11580156108c4573d6000803e3d6000fd5b505050505080806108d490612029565b9150506106d6565b506005546040517fbc4f2d6d0000000000000000000000000000000000000000000000000000000081526101f4600482015273ffffffffffffffffffffffffffffffffffffffff9091169063bc4f2d6d90602401600060405180830381600087803b15801561094a57600080fd5b505af115801561095e573d6000803e3d6000fd5b50506001546006546040517f2ce2190100000000000000000000000000000000000000000000000000000000815273ffffffffffffffffffffffffffffffffffffffff9092169350632ce2190192506109bd9160040190815260200190565b600060405180830381600087803b1580156109d757600080fd5b505af11580156109eb573d6000803e3d6000fd5b50506040805180820190915260008082526020909101819052600681905560075550610b9b92505050565b600554604080517f18160ddd0000000000000000000000000000000000000000000000000000000081529051600a9273ffffffffffffffffffffffffffffffffffffffff16916318160ddd9160048083019260209291908290030181865afa158015610a86573d6000803e3d6000fd5b505050506040513d601f19601f82011682018060405250810190610aaa9190611dc8565b610ad4907ffffffffffffffffffffffffffffffffffffffffffffffffffffffffffffffffd611e10565b610ade9190612062565b6006546000908152600c60205260409020541215610b9b576005546040517fbc4f2d6d0000000000000000000000000000000000000000000000000000000081526101f4600482015273ffffffffffffffffffffffffffffffffffffffff9091169063bc4f2d6d90602401600060405180830381600087803b158015610b6357600080fd5b505af1158015610b77573d6000803e3d6000fd5b50506040805180820190915260008082526020909101819052600681905560075550505b505050565b600480546040517f65f68c89000000000000000000000000000000000000000000000000000000008152339281019290925260009173ffffffffffffffffffffffffffffffffffffffff909116906365f68c8990602401602060405180830381865afa158015610c14573d6000803e3d6000fd5b505050506040513d601f19601f82011682018060405250810190610c3891906120f8565b600480546040517fef97a27c0000000000000000000000000000000000000000000000000000000081527fffff00000000000000000000000000000000000000000000000000000000000084169281019290925291925060059173ffffffffffffffffffffffffffffffffffffffff169063ef97a27c90602401602060405180830381865afa158015610ccf573d6000803e3d6000fd5b505050506040513d601f19601f82011682018060405250810190610cf39190611dc8565b1015610da7576040517f08c379a000000000000000000000000000000000000000000000000000000000815260206004820152604f60248201527f63616e6e6f74207375626d697450726f706f73616c28293a2063616c6c65722060448201527f6e65656473206174206c65617374203520756e69717565207265707320746f2060648201527f7375626d69742070726f706f73616c0000000000000000000000000000000000608482015260a40161046a565b81610e5a576040517f08c379a000000000000000000000000000000000000000000000000000000000815260206004820152604e60248201527f63616e6e6f74207375626d697450726f706f73616c28293a207468657265206e60448201527f6565647320746f206265206174206c65617374206f6e6520617574686f72206f60648201527f66207468652070726f706f73616c000000000000000000000000000000000000608482015260a40161046a565b60005b8281101561100c576004546105dc9073ffffffffffffffffffffffffffffffffffffffff1663a9468665868685818110610e9957610e99611fc0565b9050602002016020810190610eae9190612115565b6040517fffffffff0000000000000000000000000000000000000000000000000000000060e084901b1681527fffff0000000000000000000000000000000000000000000000000000000000009091166004820152602401602060405180830381865afa158015610f23573d6000803e3d6000fd5b505050506040513d601f19601f82011682018060405250810190610f479190611dc8565b11610ffa576040517f08c379a000000000000000000000000000000000000000000000000000000000815260206004820152604960248201527f63616e6e6f74207375626d697450726f706f73616c28293a20636f617574686f60448201527f7273206d75737420686176652067726561746572207468616e2031353030207260648201527f657075746174696f6e0000000000000000000000000000000000000000000000608482015260a40161046a565b8061100481612029565b915050610e5d565b506001546040517f18dc0de700000000000000000000000000000000000000000000000000000000815260009173ffffffffffffffffffffffffffffffffffffffff16906318dc0de7906110669089908990600401612132565b6020604051808303816000875af1158015611085573d6000803e3d6000fd5b505050506040513d601f19601f820116820180604052508101906110a99190611dc8565b905060405180608001604052808881526020018281526020013373ffffffffffffffffffffffffffffffffffffffff16815260200185858080602002602001604051908101604052809392919081815260200183836020028082843760009201829052509390945250508381526009602090815260409182902084518155848201516001820155918401516002830180547fffffffffffffffffffffffff00000000000000000000000000000000000000001673ffffffffffffffffffffffffffffffffffffffff909216919091179055606084015180519293506111979260038501929190910190611b78565b50505050505050505050565b60008060009054906101000a900473ffffffffffffffffffffffffffffffffffffffff1673ffffffffffffffffffffffffffffffffffffffff1663766718086040518163ffffffff1660e01b8152600401602060405180830381865afa158015611211573d6000803e3d6000fd5b505050506040513d601f19601f820116820180604052508101906112359190611dc8565b60008381526009602052604090206002015490915073ffffffffffffffffffffffffffffffffffffffff163314611314576040517f08c379a000000000000000000000000000000000000000000000000000000000815260206004820152604a60248201527f63616e6e6f7420737461676550726f706f73616c28293a206f6e6c792074686560448201527f206f726967696e616c2070726f706f7365722063616e2073746167652069742060648201527f666f72206120766f746500000000000000000000000000000000000000000000608482015260a40161046a565b60058060009054906101000a900473ffffffffffffffffffffffffffffffffffffffff1673ffffffffffffffffffffffffffffffffffffffff166318160ddd6040518163ffffffff1660e01b8152600401602060405180830381865afa158015611382573d6000803e3d6000fd5b505050506040513d601f19601f820116820180604052508101906113a69190611dc8565b6113b09190611fac565b6000838152600a602052604090205411611472576040517f08c379a000000000000000000000000000000000000000000000000000000000815260206004820152605460248201527f63616e6e6f7420737461676550726f706f73616c28293a2070726f706f73616c60448201527f206e65656473206174206c6561737420312f35206f66206d617820656e646f7260648201527f73656d656e747320746f20626520737461676564000000000000000000000000608482015260a40161046a565b60008281526008602052604090205460ff1615611511576040517f08c379a000000000000000000000000000000000000000000000000000000000815260206004820152603f60248201527f63616e6e6f7420737461676550726f706f73616c28293a2070726f706f73616c60448201527f2068617320616c7265616479206265656e20737461676564206265666f726500606482015260840161046a565b60075461151f9060026121a6565b8110156115d4576040517f08c379a000000000000000000000000000000000000000000000000000000000815260206004820152604160248201527f63616e6e6f7420737461676550726f706f73616c28293a2063757272656e746c60448201527f79207374616765642070726f706f73616c20686173206e6f742065787069726560648201527f6400000000000000000000000000000000000000000000000000000000000000608482015260a40161046a565b60008281526008602090815260409182902080547fffffffffffffffffffffffffffffffffffffffffffffffffffffffffffffff00166001179055815180830190925283825201819052600691909155600755565b6005546040517f70a0823100000000000000000000000000000000000000000000000000000000815233600482015260009173ffffffffffffffffffffffffffffffffffffffff16906370a0823190602401602060405180830381865afa158015611698573d6000803e3d6000fd5b505050506040513d601f19601f820116820180604052508101906116bc9190611dc8565b336000908152600b6020908152604080832086845290915290205490915080821161178f576040517f08c379a000000000000000000000000000000000000000000000000000000000815260206004820152605360248201527f63616e6e6f7420656e646f72736550726f706f73616c28293a2075736572206460448201527f6f65736e2774206861766520656e6f75676820766f74696e6720706f7765722060648201527f746f20656e646f7273652070726f706f73616c00000000000000000000000000608482015260a40161046a565b336000908152600b602090815260408083208684528252808320859055600a909152812080548392906117c39084906121be565b90915550506000838152600a6020526040812080548492906117e69084906121a6565b9091555050505050565b6118197f4558430000000000000000000000000000000000000000000000000000000000611a18565b600180547fffffffffffffffffffffffff00000000000000000000000000000000000000001673ffffffffffffffffffffffffffffffffffffffff929092169190911790556118877f544b4e0000000000000000000000000000000000000000000000000000000000611a18565b600280547fffffffffffffffffffffffff00000000000000000000000000000000000000001673ffffffffffffffffffffffffffffffffffffffff929092169190911790556118f57f5453590000000000000000000000000000000000000000000000000000000000611a18565b600380547fffffffffffffffffffffffff00000000000000000000000000000000000000001673ffffffffffffffffffffffffffffffffffffffff929092169190911790556119637f5245500000000000000000000000000000000000000000000000000000000000611a18565b600480547fffffffffffffffffffffffff00000000000000000000000000000000000000001673ffffffffffffffffffffffffffffffffffffffff929092169190911790556119d17f5654500000000000000000000000000000000000000000000000000000000000611a18565b600580547fffffffffffffffffffffffff00000000000000000000000000000000000000001673ffffffffffffffffffffffffffffffffffffffff92909216919091179055565b600080546040517fec364d880000000000000000000000000000000000000000000000000000000081527fffffff000000000000000000000000000000000000000000000000000000000084166004820152829173ffffffffffffffffffffffffffffffffffffffff169063ec364d8890602401602060405180830381865afa158015611aa9573d6000803e3d6000fd5b505050506040513d601f19601f82011682018060405250810190611acd9190611fef565b905073ffffffffffffffffffffffffffffffffffffffff8116611b72576040517f08c379a000000000000000000000000000000000000000000000000000000000815260206004820152602d60248201527f63616e6e6f74205f72657175697265537974656d28293a2073797374656d206460448201527f6f6573206e6f7420657869737400000000000000000000000000000000000000606482015260840161046a565b92915050565b82805482825590600052602060002090600f01601090048101928215611c105791602002820160005b83821115611be057835183826101000a81548161ffff021916908360f01c02179055509260200192600201602081600101049283019260010302611ba1565b8015611c0e5782816101000a81549061ffff0219169055600201602081600101049283019260010302611be0565b505b50611c1c929150611c20565b5090565b5b80821115611c1c5760008155600101611c21565b600060208284031215611c4757600080fd5b5035919050565b8015158114611c5c57600080fd5b50565b600060208284031215611c7157600080fd5b8135611c7c81611c4e565b9392505050565b60008083601f840112611c9557600080fd5b50813567ffffffffffffffff811115611cad57600080fd5b6020830191508360208260051b8501011115611cc857600080fd5b9250929050565b600080600080600060608688031215611ce757600080fd5b85359450602086013567ffffffffffffffff80821115611d0657600080fd5b818801915088601f830112611d1a57600080fd5b813581811115611d2957600080fd5b8960208260061b8501011115611d3e57600080fd5b602083019650809550506040880135915080821115611d5c57600080fd5b50611d6988828901611c83565b969995985093965092949392505050565b73ffffffffffffffffffffffffffffffffffffffff81168114611c5c57600080fd5b60008060408385031215611daf57600080fd5b8235611dba81611d7a565b946020939093013593505050565b600060208284031215611dda57600080fd5b5051919050565b7f4e487b7100000000000000000000000000000000000000000000000000000000600052601160045260246000fd5b60007f7fffffffffffffffffffffffffffffffffffffffffffffffffffffffffffffff600084136000841385830485118282161615611e5157611e51611de1565b7f80000000000000000000000000000000000000000000000000000000000000006000871286820588128184161615611e8c57611e8c611de1565b60008712925087820587128484161615611ea857611ea8611de1565b87850587128184161615611ebe57611ebe611de1565b505050929093029392505050565b6000808212827f7fffffffffffffffffffffffffffffffffffffffffffffffffffffffffffffff03841381151615611f0657611f06611de1565b827f8000000000000000000000000000000000000000000000000000000000000000038412811615611f3a57611f3a611de1565b50500190565b6000817fffffffffffffffffffffffffffffffffffffffffffffffffffffffffffffffff0483118215151615611f7857611f78611de1565b500290565b7f4e487b7100000000000000000000000000000000000000000000000000000000600052601260045260246000fd5b600082611fbb57611fbb611f7d565b500490565b7f4e487b7100000000000000000000000000000000000000000000000000000000600052603260045260246000fd5b60006020828403121561200157600080fd5b8151611c7c81611d7a565b60006020828403121561201e57600080fd5b8151611c7c81611c4e565b60007fffffffffffffffffffffffffffffffffffffffffffffffffffffffffffffffff82141561205b5761205b611de1565b5060010190565b60008261207157612071611f7d565b7fffffffffffffffffffffffffffffffffffffffffffffffffffffffffffffffff83147f8000000000000000000000000000000000000000000000000000000000000000831416156120c5576120c5611de1565b500590565b7fffff00000000000000000000000000000000000000000000000000000000000081168114611c5c57600080fd5b60006020828403121561210a57600080fd5b8151611c7c816120ca565b60006020828403121561212757600080fd5b8135611c7c816120ca565b602080825281810183905260009060408084018684805b888110156121985782356005811061215f578283fd5b84528286013561216e81611d7a565b73ffffffffffffffffffffffffffffffffffffffff16848701529284019291840191600101612149565b509198975050505050505050565b600082198211156121b9576121b9611de1565b500190565b6000828210156121d0576121d0611de1565b50039056fea26469706673582212204906de434b64bb886e3ad18370a1734d7d188027f69f74280b016094a3c4fe2c64736f6c634300080b0033",
  "devdoc": {
    "kind": "dev",
    "methods": {},
    "version": 1
  },
  "userdoc": {
    "kind": "user",
    "methods": {},
    "version": 1
  },
  "storageLayout": {
    "storage": [
      {
        "astId": 4555,
        "contract": "contracts/Policies/Governance.sol:Governance",
        "label": "_proxy",
        "offset": 0,
        "slot": "0",
        "type": "t_contract(Proxy)5007"
      },
      {
        "astId": 2485,
        "contract": "contracts/Policies/Governance.sol:Governance",
        "label": "EXC",
        "offset": 0,
        "slot": "1",
        "type": "t_contract(Executive)5314"
      },
      {
        "astId": 2488,
        "contract": "contracts/Policies/Governance.sol:Governance",
        "label": "TKN",
        "offset": 0,
        "slot": "2",
        "type": "t_contract(Token)5774"
      },
      {
        "astId": 2491,
        "contract": "contracts/Policies/Governance.sol:Governance",
        "label": "TSY",
        "offset": 0,
        "slot": "3",
        "type": "t_contract(Treasury)5973"
      },
      {
        "astId": 2494,
        "contract": "contracts/Policies/Governance.sol:Governance",
        "label": "REP",
        "offset": 0,
        "slot": "4",
        "type": "t_contract(Reputation)5555"
      },
      {
        "astId": 2497,
        "contract": "contracts/Policies/Governance.sol:Governance",
        "label": "VTP",
        "offset": 0,
        "slot": "5",
        "type": "t_contract(VotingPower)6290"
      },
      {
        "astId": 2570,
        "contract": "contracts/Policies/Governance.sol:Governance",
        "label": "stagedProposal",
        "offset": 0,
        "slot": "6",
        "type": "t_struct(StagedProposal)2567_storage"
      },
      {
        "astId": 2574,
        "contract": "contracts/Policies/Governance.sol:Governance",
        "label": "proposalHasStaged",
        "offset": 0,
        "slot": "8",
        "type": "t_mapping(t_uint256,t_bool)"
      },
      {
        "astId": 2579,
        "contract": "contracts/Policies/Governance.sol:Governance",
        "label": "proposalForInstructionsId",
        "offset": 0,
        "slot": "9",
        "type": "t_mapping(t_uint256,t_struct(Proposal)2562_storage)"
      },
      {
        "astId": 2583,
        "contract": "contracts/Policies/Governance.sol:Governance",
        "label": "endorsementsForProposal",
        "offset": 0,
        "slot": "10",
        "type": "t_mapping(t_uint256,t_uint256)"
      },
      {
        "astId": 2589,
        "contract": "contracts/Policies/Governance.sol:Governance",
        "label": "userEndorsementsForProposal",
        "offset": 0,
        "slot": "11",
        "type": "t_mapping(t_address,t_mapping(t_uint256,t_uint256))"
      },
      {
        "astId": 2593,
        "contract": "contracts/Policies/Governance.sol:Governance",
        "label": "netVotesForProposal",
        "offset": 0,
        "slot": "12",
        "type": "t_mapping(t_uint256,t_int256)"
      },
      {
        "astId": 2599,
        "contract": "contracts/Policies/Governance.sol:Governance",
        "label": "userNetVotesForProposal",
        "offset": 0,
        "slot": "13",
        "type": "t_mapping(t_address,t_mapping(t_uint256,t_int256))"
      }
    ],
    "types": {
      "t_address": {
        "encoding": "inplace",
        "label": "address",
        "numberOfBytes": "20"
      },
      "t_array(t_bytes2)dyn_storage": {
        "base": "t_bytes2",
        "encoding": "dynamic_array",
        "label": "bytes2[]",
        "numberOfBytes": "32"
      },
      "t_bool": {
        "encoding": "inplace",
        "label": "bool",
        "numberOfBytes": "1"
      },
      "t_bytes2": {
        "encoding": "inplace",
        "label": "bytes2",
        "numberOfBytes": "2"
      },
      "t_bytes32": {
        "encoding": "inplace",
        "label": "bytes32",
        "numberOfBytes": "32"
      },
      "t_contract(Executive)5314": {
        "encoding": "inplace",
        "label": "contract Executive",
        "numberOfBytes": "20"
      },
      "t_contract(Proxy)5007": {
        "encoding": "inplace",
        "label": "contract Proxy",
        "numberOfBytes": "20"
      },
      "t_contract(Reputation)5555": {
        "encoding": "inplace",
        "label": "contract Reputation",
        "numberOfBytes": "20"
      },
      "t_contract(Token)5774": {
        "encoding": "inplace",
        "label": "contract Token",
        "numberOfBytes": "20"
      },
      "t_contract(Treasury)5973": {
        "encoding": "inplace",
        "label": "contract Treasury",
        "numberOfBytes": "20"
      },
      "t_contract(VotingPower)6290": {
        "encoding": "inplace",
        "label": "contract VotingPower",
        "numberOfBytes": "20"
      },
      "t_int256": {
        "encoding": "inplace",
        "label": "int256",
        "numberOfBytes": "32"
      },
      "t_mapping(t_address,t_mapping(t_uint256,t_int256))": {
        "encoding": "mapping",
        "key": "t_address",
        "label": "mapping(address => mapping(uint256 => int256))",
        "numberOfBytes": "32",
        "value": "t_mapping(t_uint256,t_int256)"
      },
      "t_mapping(t_address,t_mapping(t_uint256,t_uint256))": {
        "encoding": "mapping",
        "key": "t_address",
        "label": "mapping(address => mapping(uint256 => uint256))",
        "numberOfBytes": "32",
        "value": "t_mapping(t_uint256,t_uint256)"
      },
      "t_mapping(t_uint256,t_bool)": {
        "encoding": "mapping",
        "key": "t_uint256",
        "label": "mapping(uint256 => bool)",
        "numberOfBytes": "32",
        "value": "t_bool"
      },
      "t_mapping(t_uint256,t_int256)": {
        "encoding": "mapping",
        "key": "t_uint256",
        "label": "mapping(uint256 => int256)",
        "numberOfBytes": "32",
        "value": "t_int256"
      },
      "t_mapping(t_uint256,t_struct(Proposal)2562_storage)": {
        "encoding": "mapping",
        "key": "t_uint256",
        "label": "mapping(uint256 => struct Governance.Proposal)",
        "numberOfBytes": "32",
        "value": "t_struct(Proposal)2562_storage"
      },
      "t_mapping(t_uint256,t_uint256)": {
        "encoding": "mapping",
        "key": "t_uint256",
        "label": "mapping(uint256 => uint256)",
        "numberOfBytes": "32",
        "value": "t_uint256"
      },
      "t_struct(Proposal)2562_storage": {
        "encoding": "inplace",
        "label": "struct Governance.Proposal",
        "members": [
          {
            "astId": 2554,
            "contract": "contracts/Policies/Governance.sol:Governance",
            "label": "name",
            "offset": 0,
            "slot": "0",
            "type": "t_bytes32"
          },
          {
            "astId": 2556,
            "contract": "contracts/Policies/Governance.sol:Governance",
            "label": "instructionsId",
            "offset": 0,
            "slot": "1",
            "type": "t_uint256"
          },
          {
            "astId": 2558,
            "contract": "contracts/Policies/Governance.sol:Governance",
            "label": "proposer",
            "offset": 0,
            "slot": "2",
            "type": "t_address"
          },
          {
            "astId": 2561,
            "contract": "contracts/Policies/Governance.sol:Governance",
            "label": "coauthors",
            "offset": 0,
            "slot": "3",
            "type": "t_array(t_bytes2)dyn_storage"
          }
        ],
        "numberOfBytes": "128"
      },
      "t_struct(StagedProposal)2567_storage": {
        "encoding": "inplace",
        "label": "struct Governance.StagedProposal",
        "members": [
          {
            "astId": 2564,
            "contract": "contracts/Policies/Governance.sol:Governance",
            "label": "instructionsId",
            "offset": 0,
            "slot": "0",
            "type": "t_uint256"
          },
          {
            "astId": 2566,
            "contract": "contracts/Policies/Governance.sol:Governance",
            "label": "epochStaged",
            "offset": 0,
            "slot": "1",
            "type": "t_uint256"
          }
        ],
        "numberOfBytes": "64"
      },
      "t_uint256": {
        "encoding": "inplace",
        "label": "uint256",
        "numberOfBytes": "32"
      }
    }
  }
}