{
  "address": "0x69a30dcFE51716e045d40e9dA89528A605499512",
  "abi": [
    {
      "inputs": [
        {
          "internalType": "contract Proxy",
          "name": "proxy_",
          "type": "address"
        }
      ],
      "stateMutability": "nonpayable",
      "type": "constructor"
    },
    {
      "anonymous": false,
      "inputs": [
        {
          "indexed": false,
          "internalType": "bytes2",
          "name": "memberId",
          "type": "bytes2"
        },
        {
          "indexed": false,
          "internalType": "uint256",
          "name": "slot",
          "type": "uint256"
        }
      ],
      "name": "LaunchBonusClaimed",
      "type": "event"
    },
    {
      "inputs": [],
      "name": "_proxy",
      "outputs": [
        {
          "internalType": "contract Proxy",
          "name": "",
          "type": "address"
        }
      ],
      "stateMutability": "view",
      "type": "function"
    },
    {
      "inputs": [
        {
          "internalType": "address",
          "name": "newMember_",
          "type": "address"
        }
      ],
      "name": "approvePreregistrationFor",
      "outputs": [],
      "stateMutability": "nonpayable",
      "type": "function"
    },
    {
      "inputs": [
        {
          "internalType": "uint256",
          "name": "",
          "type": "uint256"
        }
      ],
      "name": "claimAddresses",
      "outputs": [
        {
          "internalType": "address",
          "name": "",
          "type": "address"
        }
      ],
      "stateMutability": "view",
      "type": "function"
    },
    {
      "inputs": [],
      "name": "claimLaunchBonus",
      "outputs": [],
      "stateMutability": "nonpayable",
      "type": "function"
    },
    {
      "inputs": [],
      "name": "configureSystems",
      "outputs": [],
      "stateMutability": "nonpayable",
      "type": "function"
    },
    {
      "inputs": [
        {
          "internalType": "address",
          "name": "",
          "type": "address"
        }
      ],
      "name": "isApproved",
      "outputs": [
        {
          "internalType": "bool",
          "name": "",
          "type": "bool"
        }
      ],
      "stateMutability": "view",
      "type": "function"
    },
    {
      "inputs": [
        {
          "internalType": "bytes2",
          "name": "",
          "type": "bytes2"
        }
      ],
      "name": "isClaimed",
      "outputs": [
        {
          "internalType": "bool",
          "name": "",
          "type": "bool"
        }
      ],
      "stateMutability": "view",
      "type": "function"
    },
    {
      "inputs": [],
      "name": "preregister",
      "outputs": [],
      "stateMutability": "nonpayable",
      "type": "function"
    }
  ],
  "transactionHash": "0xd2e9f588150f23bc0859a7b4a8d79ba1f38a2a4de55ef7c594b2f9c530663d0d",
  "args": [
    "0x093473009D8c3e8c0a14c80b24fDC16D3b6eed92"
  ],
  "numDeployments": 1,
  "solcInputHash": "dd20dabda5042d782af117ad6e9fcf3c",
  "bytecode": "0x608060405234801561001057600080fd5b5060405161152838038061152883398101604081905261002f9161005d565b600080546001600160a01b039092166001600160a01b0319928316179055600480549091163317905561008d565b60006020828403121561006f57600080fd5b81516001600160a01b038116811461008657600080fd5b9392505050565b61148c8061009c6000396000f3fe608060405234801561001057600080fd5b50600436106100885760003560e01c8063d0029d611161005b578063d0029d611461011c578063ddb32d1f1461012f578063e51f923214610142578063f88b10f01461014a57600080fd5b806332bdf54e1461008d578063673448dd146100975780638209ea29146100cf578063cc2effdc146100d7575b600080fd5b61009561016d565b005b6100ba6100a53660046112ca565b60076020526000908152604090205460ff1681565b60405190151581526020015b60405180910390f35b61009561043f565b6000546100f79073ffffffffffffffffffffffffffffffffffffffff1681565b60405173ffffffffffffffffffffffffffffffffffffffff90911681526020016100c6565b6100f761012a3660046112ee565b610d4b565b61009561013d3660046112ca565b610d82565b610095610f60565b6100ba610158366004611335565b60066020526000908152604090205460ff1681565b60008054906101000a900473ffffffffffffffffffffffffffffffffffffffff1673ffffffffffffffffffffffffffffffffffffffff1663766718086040518163ffffffff1660e01b8152600401602060405180830381865afa1580156101d8573d6000803e3d6000fd5b505050506040513d601f19601f820116820180604052508101906101fc9190611352565b156102745760405162461bcd60e51b815260206004820152603760248201527f7072656c61756e63684f6e6c792829206661696c65643a2050726f787920686160448201527f7320616c7265616479206265656e206c61756e6368656400000000000000000060648201526084015b60405180910390fd5b3360009081526007602052604090205460ff166102f95760405162461bcd60e51b815260206004820152603d60248201527f63616e6e6f74207265676973746572282920647572696e67207072656c61756e60448201527f63683a206d656d626572206973206e6f7420707265617070726f766564000000606482015260840161026b565b6001546040517f779beedf00000000000000000000000000000000000000000000000000000000815233600482015260009173ffffffffffffffffffffffffffffffffffffffff169063779beedf906024016020604051808303816000875af115801561036a573d6000803e3d6000fd5b505050506040513d601f19601f8201168201806040525081019061038e919061136b565b6001546040517f61437dc50000000000000000000000000000000000000000000000000000000081527fffff00000000000000000000000000000000000000000000000000000000000083166004820152610bb8602482015291925073ffffffffffffffffffffffffffffffffffffffff16906361437dc590604401600060405180830381600087803b15801561042457600080fd5b505af1158015610438573d6000803e3d6000fd5b5050505050565b60008054906101000a900473ffffffffffffffffffffffffffffffffffffffff1673ffffffffffffffffffffffffffffffffffffffff1663766718086040518163ffffffff1660e01b8152600401602060405180830381865afa1580156104aa573d6000803e3d6000fd5b505050506040513d601f19601f820116820180604052508101906104ce9190611352565b156105415760405162461bcd60e51b815260206004820152603760248201527f7072656c61756e63684f6e6c792829206661696c65643a2050726f787920686160448201527f7320616c7265616479206265656e206c61756e63686564000000000000000000606482015260840161026b565b6001546040517f65f68c8900000000000000000000000000000000000000000000000000000000815233600482015260009173ffffffffffffffffffffffffffffffffffffffff16906365f68c8990602401602060405180830381865afa1580156105b0573d6000803e3d6000fd5b505050506040513d601f19601f820116820180604052508101906105d4919061136b565b90507fffff000000000000000000000000000000000000000000000000000000000000811661066b5760405162461bcd60e51b815260206004820152603a60248201527f63616e6e6f7420636c61696d4c61756e6368426f6e757328293a2063616c6c6560448201527f7220646f6573206e6f74206861766520612050726f7879204944000000000000606482015260840161026b565b7fffff000000000000000000000000000000000000000000000000000000000000811660009081526006602052604090205460ff16156107135760405162461bcd60e51b815260206004820152603b60248201527f63616e6e6f7420636c61696d4c61756e6368536c6f7428293a206d656d62657260448201527f2068617320616c726561647920636c61696d6564206120736c6f740000000000606482015260840161026b565b6001546040517fa94686650000000000000000000000000000000000000000000000000000000081527fffff000000000000000000000000000000000000000000000000000000000000831660048201526109c49173ffffffffffffffffffffffffffffffffffffffff169063a946866590602401602060405180830381865afa1580156107a5573d6000803e3d6000fd5b505050506040513d601f19601f820116820180604052508101906107c99190611352565b10156108635760405162461bcd60e51b815260206004820152604c60248201527f63616e6e6f7420636c61696d4c61756e6368536c6f7428293a206d656d62657260448201527f20646f6573206e6f74206861766520746865207265717569726564207265707560648201527f746174696f6e2073636f72650000000000000000000000000000000000000000608482015260a40161026b565b6001546040517fef97a27c0000000000000000000000000000000000000000000000000000000081527fffff0000000000000000000000000000000000000000000000000000000000008316600482015260039173ffffffffffffffffffffffffffffffffffffffff169063ef97a27c90602401602060405180830381865afa1580156108f4573d6000803e3d6000fd5b505050506040513d601f19601f820116820180604052508101906109189190611352565b10156109b25760405162461bcd60e51b815260206004820152604660248201527f63616e6e6f7420636c61696d4c61756e6368536c6f7428293a206d656d62657260448201527f20646f6573206e6f7420686176652074686520726571756972656420756e697160648201527f7565526570730000000000000000000000000000000000000000000000000000608482015260a40161026b565b60008054906101000a900473ffffffffffffffffffffffffffffffffffffffff1673ffffffffffffffffffffffffffffffffffffffff1663307aebc96040518163ffffffff1660e01b8152600401602060405180830381865afa158015610a1d573d6000803e3d6000fd5b505050506040513d601f19601f82011682018060405250810190610a419190611388565b15610ab45760405162461bcd60e51b815260206004820152603b60248201527f63616e6e6f7420636c61696d4c61756e6368536c6f7428293a2070726f6a656360448201527f742068617320616c7265616479206265656e206c61756e636865640000000000606482015260840161026b565b60058054600181810183557f036b6384b5eca791c62761152d0c79bb0604c104a5fb6f4eb0703f3154bb3db090910180547fffffffffffffffffffffffff000000000000000000000000000000000000000016331790557fffff0000000000000000000000000000000000000000000000000000000000008316600090815260066020526040902080547fffffffffffffffffffffffffffffffffffffffffffffffffffffffffffffff00169091179055805410610cea5760005b6005811015610c66576003546005805473ffffffffffffffffffffffffffffffffffffffff909216916340c10f19919084908110610baf57610baf6113aa565b60009182526020909120015460405160e083901b7fffffffff0000000000000000000000000000000000000000000000000000000016815273ffffffffffffffffffffffffffffffffffffffff9091166004820152620f424060248201526044016020604051808303816000875af1158015610c2f573d6000803e3d6000fd5b505050506040513d601f19601f82011682018060405250810190610c539190611388565b5080610c5e816113d9565b915050610b6f565b50600260009054906101000a900473ffffffffffffffffffffffffffffffffffffffff1673ffffffffffffffffffffffffffffffffffffffff166385e0d8ad6040518163ffffffff1660e01b8152600401600060405180830381600087803b158015610cd157600080fd5b505af1158015610ce5573d6000803e3d6000fd5b505050505b600554604080517fffff0000000000000000000000000000000000000000000000000000000000008416815260208101929092527ebc945f829e367883b8d71af2bece2fd34a263c8263cdd9207e999af96e35cc910160405180910390a150565b60058181548110610d5b57600080fd5b60009182526020909120015473ffffffffffffffffffffffffffffffffffffffff16905081565b60008054906101000a900473ffffffffffffffffffffffffffffffffffffffff1673ffffffffffffffffffffffffffffffffffffffff1663766718086040518163ffffffff1660e01b8152600401602060405180830381865afa158015610ded573d6000803e3d6000fd5b505050506040513d601f19601f82011682018060405250810190610e119190611352565b15610e845760405162461bcd60e51b815260206004820152603760248201527f7072656c61756e63684f6e6c792829206661696c65643a2050726f787920686160448201527f7320616c7265616479206265656e206c61756e63686564000000000000000000606482015260840161026b565b60045473ffffffffffffffffffffffffffffffffffffffff163314610f115760405162461bcd60e51b815260206004820152602d60248201527f7072656c61756e63684f6e6c792829206661696c65643a2063616c6c6572206960448201527f73206e6f74207468652064657600000000000000000000000000000000000000606482015260840161026b565b73ffffffffffffffffffffffffffffffffffffffff16600090815260076020526040902080547fffffffffffffffffffffffffffffffffffffffffffffffffffffffffffffff00166001179055565b60005473ffffffffffffffffffffffffffffffffffffffff1633146110135760405162461bcd60e51b815260206004820152604860248201527f63616e6e6f7420636f6e66696775726553797374656d7328293a206f6e6c792060448201527f7468652050726f787920636f6e74726163742063616e20636f6e66696775726560648201527f2073797374656d73000000000000000000000000000000000000000000000000608482015260a40161026b565b61103c7f524550000000000000000000000000000000000000000000000000000000000061115f565b600180547fffffffffffffffffffffffff00000000000000000000000000000000000000001673ffffffffffffffffffffffffffffffffffffffff929092169190911790556110aa7f455843000000000000000000000000000000000000000000000000000000000061115f565b600280547fffffffffffffffffffffffff00000000000000000000000000000000000000001673ffffffffffffffffffffffffffffffffffffffff929092169190911790556111187f544b4e000000000000000000000000000000000000000000000000000000000061115f565b600380547fffffffffffffffffffffffff00000000000000000000000000000000000000001673ffffffffffffffffffffffffffffffffffffffff92909216919091179055565b600080546040517fec364d880000000000000000000000000000000000000000000000000000000081527fffffff000000000000000000000000000000000000000000000000000000000084166004820152829173ffffffffffffffffffffffffffffffffffffffff169063ec364d8890602401602060405180830381865afa1580156111f0573d6000803e3d6000fd5b505050506040513d601f19601f820116820180604052508101906112149190611439565b905073ffffffffffffffffffffffffffffffffffffffff811661129f5760405162461bcd60e51b815260206004820152602d60248201527f63616e6e6f74205f72657175697265537974656d28293a2073797374656d206460448201527f6f6573206e6f7420657869737400000000000000000000000000000000000000606482015260840161026b565b92915050565b73ffffffffffffffffffffffffffffffffffffffff811681146112c757600080fd5b50565b6000602082840312156112dc57600080fd5b81356112e7816112a5565b9392505050565b60006020828403121561130057600080fd5b5035919050565b7fffff000000000000000000000000000000000000000000000000000000000000811681146112c757600080fd5b60006020828403121561134757600080fd5b81356112e781611307565b60006020828403121561136457600080fd5b5051919050565b60006020828403121561137d57600080fd5b81516112e781611307565b60006020828403121561139a57600080fd5b815180151581146112e757600080fd5b7f4e487b7100000000000000000000000000000000000000000000000000000000600052603260045260246000fd5b60007fffffffffffffffffffffffffffffffffffffffffffffffffffffffffffffffff821415611432577f4e487b7100000000000000000000000000000000000000000000000000000000600052601160045260246000fd5b5060010190565b60006020828403121561144b57600080fd5b81516112e7816112a556fea2646970667358221220ddc0998bf902db9d62e4128fa39f2b860fe5997c292a674f0d5cfc358dbaf7d864736f6c634300080b0033",
  "devdoc": {
    "kind": "dev",
    "methods": {},
    "version": 1
  },
  "userdoc": {
    "kind": "user",
    "methods": {},
    "version": 1
  },
  "storageLayout": {
    "storage": [
      {
        "astId": 4555,
        "contract": "contracts/Policies/Prelaunch.sol:Prelaunch",
        "label": "_proxy",
        "offset": 0,
        "slot": "0",
        "type": "t_contract(Proxy)5007"
      },
      {
        "astId": 3016,
        "contract": "contracts/Policies/Prelaunch.sol:Prelaunch",
        "label": "REP",
        "offset": 0,
        "slot": "1",
        "type": "t_contract(Reputation)5555"
      },
      {
        "astId": 3019,
        "contract": "contracts/Policies/Prelaunch.sol:Prelaunch",
        "label": "EXC",
        "offset": 0,
        "slot": "2",
        "type": "t_contract(Executive)5314"
      },
      {
        "astId": 3022,
        "contract": "contracts/Policies/Prelaunch.sol:Prelaunch",
        "label": "TKN",
        "offset": 0,
        "slot": "3",
        "type": "t_contract(Token)5774"
      },
      {
        "astId": 3024,
        "contract": "contracts/Policies/Prelaunch.sol:Prelaunch",
        "label": "_dev",
        "offset": 0,
        "slot": "4",
        "type": "t_address"
      },
      {
        "astId": 3082,
        "contract": "contracts/Policies/Prelaunch.sol:Prelaunch",
        "label": "claimAddresses",
        "offset": 0,
        "slot": "5",
        "type": "t_array(t_address)dyn_storage"
      },
      {
        "astId": 3086,
        "contract": "contracts/Policies/Prelaunch.sol:Prelaunch",
        "label": "isClaimed",
        "offset": 0,
        "slot": "6",
        "type": "t_mapping(t_bytes2,t_bool)"
      },
      {
        "astId": 3090,
        "contract": "contracts/Policies/Prelaunch.sol:Prelaunch",
        "label": "isApproved",
        "offset": 0,
        "slot": "7",
        "type": "t_mapping(t_address,t_bool)"
      }
    ],
    "types": {
      "t_address": {
        "encoding": "inplace",
        "label": "address",
        "numberOfBytes": "20"
      },
      "t_array(t_address)dyn_storage": {
        "base": "t_address",
        "encoding": "dynamic_array",
        "label": "address[]",
        "numberOfBytes": "32"
      },
      "t_bool": {
        "encoding": "inplace",
        "label": "bool",
        "numberOfBytes": "1"
      },
      "t_bytes2": {
        "encoding": "inplace",
        "label": "bytes2",
        "numberOfBytes": "2"
      },
      "t_contract(Executive)5314": {
        "encoding": "inplace",
        "label": "contract Executive",
        "numberOfBytes": "20"
      },
      "t_contract(Proxy)5007": {
        "encoding": "inplace",
        "label": "contract Proxy",
        "numberOfBytes": "20"
      },
      "t_contract(Reputation)5555": {
        "encoding": "inplace",
        "label": "contract Reputation",
        "numberOfBytes": "20"
      },
      "t_contract(Token)5774": {
        "encoding": "inplace",
        "label": "contract Token",
        "numberOfBytes": "20"
      },
      "t_mapping(t_address,t_bool)": {
        "encoding": "mapping",
        "key": "t_address",
        "label": "mapping(address => bool)",
        "numberOfBytes": "32",
        "value": "t_bool"
      },
      "t_mapping(t_bytes2,t_bool)": {
        "encoding": "mapping",
        "key": "t_bytes2",
        "label": "mapping(bytes2 => bool)",
        "numberOfBytes": "32",
        "value": "t_bool"
      }
    }
  }
}