{
  "address": "0xc924E7eD7b556bb4F54696b12abCfAF6091A17CC",
  "abi": [
    {
      "inputs": [
        {
          "internalType": "contract Proxy",
          "name": "proxy_",
          "type": "address"
        }
      ],
      "stateMutability": "nonpayable",
      "type": "constructor"
    },
    {
      "anonymous": false,
      "inputs": [
        {
          "indexed": false,
          "internalType": "address",
          "name": "token",
          "type": "address"
        }
      ],
      "name": "AssetAdded",
      "type": "event"
    },
    {
      "anonymous": false,
      "inputs": [
        {
          "indexed": false,
          "internalType": "address",
          "name": "token",
          "type": "address"
        },
        {
          "indexed": false,
          "internalType": "uint256",
          "name": "amount",
          "type": "uint256"
        }
      ],
      "name": "FundsWithdrawn",
      "type": "event"
    },
    {
      "anonymous": false,
      "inputs": [
        {
          "indexed": false,
          "internalType": "address",
          "name": "from",
          "type": "address"
        },
        {
          "indexed": false,
          "internalType": "address",
          "name": "token",
          "type": "address"
        },
        {
          "indexed": false,
          "internalType": "uint256",
          "name": "amount",
          "type": "uint256"
        }
      ],
      "name": "PaymentProcessed",
      "type": "event"
    },
    {
      "inputs": [],
      "name": "KEYCODE",
      "outputs": [
        {
          "internalType": "bytes3",
          "name": "",
          "type": "bytes3"
        }
      ],
      "stateMutability": "pure",
      "type": "function"
    },
    {
      "inputs": [],
      "name": "_proxy",
      "outputs": [
        {
          "internalType": "contract Proxy",
          "name": "",
          "type": "address"
        }
      ],
      "stateMutability": "view",
      "type": "function"
    },
    {
      "inputs": [
        {
          "internalType": "address",
          "name": "token_",
          "type": "address"
        }
      ],
      "name": "addTrackedAsset",
      "outputs": [],
      "stateMutability": "nonpayable",
      "type": "function"
    },
    {
      "inputs": [
        {
          "internalType": "uint256",
          "name": "",
          "type": "uint256"
        },
        {
          "internalType": "address",
          "name": "",
          "type": "address"
        }
      ],
      "name": "assetInflowsPerEpoch",
      "outputs": [
        {
          "internalType": "uint256",
          "name": "",
          "type": "uint256"
        }
      ],
      "stateMutability": "view",
      "type": "function"
    },
    {
      "inputs": [
        {
          "internalType": "uint256",
          "name": "",
          "type": "uint256"
        },
        {
          "internalType": "address",
          "name": "",
          "type": "address"
        }
      ],
      "name": "assetOutflowsPerEpoch",
      "outputs": [
        {
          "internalType": "uint256",
          "name": "",
          "type": "uint256"
        }
      ],
      "stateMutability": "view",
      "type": "function"
    },
    {
      "inputs": [
        {
          "internalType": "address",
          "name": "from_",
          "type": "address"
        },
        {
          "internalType": "address",
          "name": "token_",
          "type": "address"
        },
        {
          "internalType": "uint256",
          "name": "amount_",
          "type": "uint256"
        }
      ],
      "name": "processPayment",
      "outputs": [],
      "stateMutability": "nonpayable",
      "type": "function"
    },
    {
      "inputs": [
        {
          "internalType": "address",
          "name": "",
          "type": "address"
        }
      ],
      "name": "totalInflowsForAsset",
      "outputs": [
        {
          "internalType": "uint256",
          "name": "",
          "type": "uint256"
        }
      ],
      "stateMutability": "view",
      "type": "function"
    },
    {
      "inputs": [
        {
          "internalType": "address",
          "name": "",
          "type": "address"
        }
      ],
      "name": "totalOutflowsForAsset",
      "outputs": [
        {
          "internalType": "uint256",
          "name": "",
          "type": "uint256"
        }
      ],
      "stateMutability": "view",
      "type": "function"
    },
    {
      "inputs": [
        {
          "internalType": "address",
          "name": "",
          "type": "address"
        }
      ],
      "name": "trackedAsset",
      "outputs": [
        {
          "internalType": "bool",
          "name": "",
          "type": "bool"
        }
      ],
      "stateMutability": "view",
      "type": "function"
    },
    {
      "inputs": [
        {
          "internalType": "address",
          "name": "token_",
          "type": "address"
        },
        {
          "internalType": "uint256",
          "name": "amount_",
          "type": "uint256"
        }
      ],
      "name": "withdrawFunds",
      "outputs": [],
      "stateMutability": "nonpayable",
      "type": "function"
    }
  ],
  "transactionHash": "0x8d20e9c81ac46d96aacde6233e4316d308d128d0f69ee6a2c0fae83c4bf3a764",
  "args": [
    "0x093473009D8c3e8c0a14c80b24fDC16D3b6eed92"
  ],
  "numDeployments": 1,
  "solcInputHash": "dd20dabda5042d782af117ad6e9fcf3c",
  "bytecode": "0x608060405234801561001057600080fd5b50604051610e28380380610e2883398101604081905261002f91610054565b600080546001600160a01b0319166001600160a01b0392909216919091179055610084565b60006020828403121561006657600080fd5b81516001600160a01b038116811461007d57600080fd5b9392505050565b610d95806100936000396000f3fe608060405234801561001057600080fd5b50600436106100be5760003560e01c8063bd69294011610076578063cc2effdc1161005b578063cc2effdc146101d5578063d1a0cc5c1461021a578063eea031e91461022d57600080fd5b8063bd692940146101a2578063c1075329146101c257600080fd5b806332375972116100a757806332375972146101295780634ef0762e146101625780636023471a1461017757600080fd5b80631ae7ec2e146100c357806321d90704146100f6575b600080fd5b6040517f545359000000000000000000000000000000000000000000000000000000000081526020015b60405180910390f35b610119610104366004610c31565b60016020526000908152604090205460ff1681565b60405190151581526020016100ed565b610154610137366004610c53565b600560209081526000928352604080842090915290825290205481565b6040519081526020016100ed565b610175610170366004610c31565b61024d565b005b610154610185366004610c53565b600460209081526000928352604080842090915290825290205481565b6101546101b0366004610c31565b60036020526000908152604090205481565b6101756101d0366004610c7f565b6103f6565b6000546101f59073ffffffffffffffffffffffffffffffffffffffff1681565b60405173ffffffffffffffffffffffffffffffffffffffff90911681526020016100ed565b610175610228366004610ca9565b6107f6565b61015461023b366004610c31565b60026020526000908152604090205481565b6000546040517f1d10fc6400000000000000000000000000000000000000000000000000000000815233600482015273ffffffffffffffffffffffffffffffffffffffff90911690631d10fc6490602401602060405180830381865afa1580156102bb573d6000803e3d6000fd5b505050506040513d601f19601f820116820180604052508101906102df9190610ce5565b610370576040517f08c379a000000000000000000000000000000000000000000000000000000000815260206004820152603b60248201527f6f6e6c79506f6c69637928293a206f6e6c7920617070726f76656420706f6c6960448201527f636965732063616e2063616c6c20746869732066756e6374696f6e000000000060648201526084015b60405180910390fd5b73ffffffffffffffffffffffffffffffffffffffff811660008181526001602081815260409283902080547fffffffffffffffffffffffffffffffffffffffffffffffffffffffffffffff001690921790915590519182527f0e3c58ebfb2e7465fbb1c32e6b4f40c3c4f5ca77e8218a386aff8617831260d7910160405180910390a150565b6000546040517f1d10fc6400000000000000000000000000000000000000000000000000000000815233600482015273ffffffffffffffffffffffffffffffffffffffff90911690631d10fc6490602401602060405180830381865afa158015610464573d6000803e3d6000fd5b505050506040513d601f19601f820116820180604052508101906104889190610ce5565b610514576040517f08c379a000000000000000000000000000000000000000000000000000000000815260206004820152603b60248201527f6f6e6c79506f6c69637928293a206f6e6c7920617070726f76656420706f6c6960448201527f636965732063616e2063616c6c20746869732066756e6374696f6e00000000006064820152608401610367565b73ffffffffffffffffffffffffffffffffffffffff821660009081526001602081905260409091205460ff161515146105f5576040517f08c379a000000000000000000000000000000000000000000000000000000000815260206004820152604960248201527f63616e6e6f7420776974686472617746756e647328293a20746f6b656e20697360448201527f206e6f7420616e2061636365707465642063757272656e63792062792074686560648201527f2074726561737572790000000000000000000000000000000000000000000000608482015260a401610367565b6040517fa9059cbb0000000000000000000000000000000000000000000000000000000081523360048201526024810182905273ffffffffffffffffffffffffffffffffffffffff83169063a9059cbb906044016020604051808303816000875af1158015610668573d6000803e3d6000fd5b505050506040513d601f19601f8201168201806040525081019061068c9190610ce5565b5060008060009054906101000a900473ffffffffffffffffffffffffffffffffffffffff1673ffffffffffffffffffffffffffffffffffffffff1663766718086040518163ffffffff1660e01b8152600401602060405180830381865afa1580156106fb573d6000803e3d6000fd5b505050506040513d601f19601f8201168201806040525081019061071f9190610d07565b73ffffffffffffffffffffffffffffffffffffffff8416600090815260036020526040812080549293508492909190610759908490610d20565b9091555050600081815260056020908152604080832073ffffffffffffffffffffffffffffffffffffffff871684529091528120805484929061079d908490610d20565b90915550506040805173ffffffffffffffffffffffffffffffffffffffff85168152602081018490527feaff4b37086828766ad3268786972c0cd24259d4c87a80f9d3963a3c3d999b0d910160405180910390a1505050565b6000546040517f1d10fc6400000000000000000000000000000000000000000000000000000000815233600482015273ffffffffffffffffffffffffffffffffffffffff90911690631d10fc6490602401602060405180830381865afa158015610864573d6000803e3d6000fd5b505050506040513d601f19601f820116820180604052508101906108889190610ce5565b610914576040517f08c379a000000000000000000000000000000000000000000000000000000000815260206004820152603b60248201527f6f6e6c79506f6c69637928293a206f6e6c7920617070726f76656420706f6c6960448201527f636965732063616e2063616c6c20746869732066756e6374696f6e00000000006064820152608401610367565b73ffffffffffffffffffffffffffffffffffffffff821660009081526001602081905260409091205460ff161515146109f5576040517f08c379a000000000000000000000000000000000000000000000000000000000815260206004820152604a60248201527f63616e6e6f742070726f636573735061796d656e7428293a20746f6b656e206960448201527f73206e6f7420616e2061636365707465642063757272656e637920627920746860648201527f6520747265617375727900000000000000000000000000000000000000000000608482015260a401610367565b6040517f23b872dd00000000000000000000000000000000000000000000000000000000815273ffffffffffffffffffffffffffffffffffffffff8481166004830152306024830152604482018390528316906323b872dd906064016020604051808303816000875af1158015610a70573d6000803e3d6000fd5b505050506040513d601f19601f82011682018060405250810190610a949190610ce5565b5060008060009054906101000a900473ffffffffffffffffffffffffffffffffffffffff1673ffffffffffffffffffffffffffffffffffffffff1663766718086040518163ffffffff1660e01b8152600401602060405180830381865afa158015610b03573d6000803e3d6000fd5b505050506040513d601f19601f82011682018060405250810190610b279190610d07565b73ffffffffffffffffffffffffffffffffffffffff8416600090815260026020526040812080549293508492909190610b61908490610d20565b9091555050600081815260046020908152604080832073ffffffffffffffffffffffffffffffffffffffff8716845290915281208054849290610ba5908490610d20565b90915550506040805173ffffffffffffffffffffffffffffffffffffffff8087168252851660208201529081018390527f0538ab32a957d2b55d0ec70a4029e73fdf19f500832839b1d7bafcfbca2a56309060600160405180910390a150505050565b803573ffffffffffffffffffffffffffffffffffffffff81168114610c2c57600080fd5b919050565b600060208284031215610c4357600080fd5b610c4c82610c08565b9392505050565b60008060408385031215610c6657600080fd5b82359150610c7660208401610c08565b90509250929050565b60008060408385031215610c9257600080fd5b610c9b83610c08565b946020939093013593505050565b600080600060608486031215610cbe57600080fd5b610cc784610c08565b9250610cd560208501610c08565b9150604084013590509250925092565b600060208284031215610cf757600080fd5b81518015158114610c4c57600080fd5b600060208284031215610d1957600080fd5b5051919050565b60008219821115610d5a577f4e487b7100000000000000000000000000000000000000000000000000000000600052601160045260246000fd5b50019056fea26469706673582212206fdcf76a287b9f71ed7346608618d37c5d0136c094720d431e54ca23ee697f7164736f6c634300080b0033",
  "devdoc": {
    "kind": "dev",
    "methods": {},
    "version": 1
  },
  "userdoc": {
    "kind": "user",
    "methods": {},
    "version": 1
  },
  "storageLayout": {
    "storage": [
      {
        "astId": 4521,
        "contract": "contracts/Systems/TSY.sol:Treasury",
        "label": "_proxy",
        "offset": 0,
        "slot": "0",
        "type": "t_contract(Proxy)5007"
      },
      {
        "astId": 5804,
        "contract": "contracts/Systems/TSY.sol:Treasury",
        "label": "trackedAsset",
        "offset": 0,
        "slot": "1",
        "type": "t_mapping(t_address,t_bool)"
      },
      {
        "astId": 5808,
        "contract": "contracts/Systems/TSY.sol:Treasury",
        "label": "totalInflowsForAsset",
        "offset": 0,
        "slot": "2",
        "type": "t_mapping(t_address,t_uint256)"
      },
      {
        "astId": 5812,
        "contract": "contracts/Systems/TSY.sol:Treasury",
        "label": "totalOutflowsForAsset",
        "offset": 0,
        "slot": "3",
        "type": "t_mapping(t_address,t_uint256)"
      },
      {
        "astId": 5818,
        "contract": "contracts/Systems/TSY.sol:Treasury",
        "label": "assetInflowsPerEpoch",
        "offset": 0,
        "slot": "4",
        "type": "t_mapping(t_uint256,t_mapping(t_address,t_uint256))"
      },
      {
        "astId": 5824,
        "contract": "contracts/Systems/TSY.sol:Treasury",
        "label": "assetOutflowsPerEpoch",
        "offset": 0,
        "slot": "5",
        "type": "t_mapping(t_uint256,t_mapping(t_address,t_uint256))"
      }
    ],
    "types": {
      "t_address": {
        "encoding": "inplace",
        "label": "address",
        "numberOfBytes": "20"
      },
      "t_bool": {
        "encoding": "inplace",
        "label": "bool",
        "numberOfBytes": "1"
      },
      "t_contract(Proxy)5007": {
        "encoding": "inplace",
        "label": "contract Proxy",
        "numberOfBytes": "20"
      },
      "t_mapping(t_address,t_bool)": {
        "encoding": "mapping",
        "key": "t_address",
        "label": "mapping(address => bool)",
        "numberOfBytes": "32",
        "value": "t_bool"
      },
      "t_mapping(t_address,t_uint256)": {
        "encoding": "mapping",
        "key": "t_address",
        "label": "mapping(address => uint256)",
        "numberOfBytes": "32",
        "value": "t_uint256"
      },
      "t_mapping(t_uint256,t_mapping(t_address,t_uint256))": {
        "encoding": "mapping",
        "key": "t_uint256",
        "label": "mapping(uint256 => mapping(address => uint256))",
        "numberOfBytes": "32",
        "value": "t_mapping(t_address,t_uint256)"
      },
      "t_uint256": {
        "encoding": "inplace",
        "label": "uint256",
        "numberOfBytes": "32"
      }
    }
  }
}